{
  "contractName": "RoomBooking",
  "abi": [
    {
      "inputs": [],
      "stateMutability": "nonpayable",
      "type": "constructor"
    },
    {
      "anonymous": false,
      "inputs": [
        {
          "indexed": true,
          "internalType": "address",
          "name": "previousOwner",
          "type": "address"
        },
        {
          "indexed": true,
          "internalType": "address",
          "name": "newOwner",
          "type": "address"
        }
      ],
      "name": "OwnershipTransferred",
      "type": "event"
    },
    {
      "anonymous": false,
      "inputs": [
        {
          "indexed": true,
          "internalType": "bytes32",
          "name": "role",
          "type": "bytes32"
        },
        {
          "indexed": true,
          "internalType": "bytes32",
          "name": "previousAdminRole",
          "type": "bytes32"
        },
        {
          "indexed": true,
          "internalType": "bytes32",
          "name": "newAdminRole",
          "type": "bytes32"
        }
      ],
      "name": "RoleAdminChanged",
      "type": "event"
    },
    {
      "anonymous": false,
      "inputs": [
        {
          "indexed": true,
          "internalType": "bytes32",
          "name": "role",
          "type": "bytes32"
        },
        {
          "indexed": true,
          "internalType": "address",
          "name": "account",
          "type": "address"
        },
        {
          "indexed": true,
          "internalType": "address",
          "name": "sender",
          "type": "address"
        }
      ],
      "name": "RoleGranted",
      "type": "event"
    },
    {
      "anonymous": false,
      "inputs": [
        {
          "indexed": true,
          "internalType": "bytes32",
          "name": "role",
          "type": "bytes32"
        },
        {
          "indexed": true,
          "internalType": "address",
          "name": "account",
          "type": "address"
        },
        {
          "indexed": true,
          "internalType": "address",
          "name": "sender",
          "type": "address"
        }
      ],
      "name": "RoleRevoked",
      "type": "event"
    },
    {
      "inputs": [],
      "name": "ADMIN_ROLE",
      "outputs": [
        {
          "internalType": "bytes32",
          "name": "",
          "type": "bytes32"
        }
      ],
      "stateMutability": "view",
      "type": "function",
      "constant": true
    },
    {
      "inputs": [],
      "name": "BOOKER_ROLE",
      "outputs": [
        {
          "internalType": "bytes32",
          "name": "",
          "type": "bytes32"
        }
      ],
      "stateMutability": "view",
      "type": "function",
      "constant": true
    },
    {
      "inputs": [],
      "name": "DEFAULT_ADMIN_ROLE",
      "outputs": [
        {
          "internalType": "bytes32",
          "name": "",
          "type": "bytes32"
        }
      ],
      "stateMutability": "view",
      "type": "function",
      "constant": true
    },
    {
      "inputs": [
        {
          "internalType": "bytes32",
          "name": "role",
          "type": "bytes32"
        }
      ],
      "name": "getRoleAdmin",
      "outputs": [
        {
          "internalType": "bytes32",
          "name": "",
          "type": "bytes32"
        }
      ],
      "stateMutability": "view",
      "type": "function",
      "constant": true
    },
    {
      "inputs": [
        {
          "internalType": "bytes32",
          "name": "role",
          "type": "bytes32"
        },
        {
          "internalType": "address",
          "name": "account",
          "type": "address"
        }
      ],
      "name": "grantRole",
      "outputs": [],
      "stateMutability": "nonpayable",
      "type": "function"
    },
    {
      "inputs": [
        {
          "internalType": "bytes32",
          "name": "role",
          "type": "bytes32"
        },
        {
          "internalType": "address",
          "name": "account",
          "type": "address"
        }
      ],
      "name": "hasRole",
      "outputs": [
        {
          "internalType": "bool",
          "name": "",
          "type": "bool"
        }
      ],
      "stateMutability": "view",
      "type": "function",
      "constant": true
    },
    {
      "inputs": [],
      "name": "owner",
      "outputs": [
        {
          "internalType": "address",
          "name": "",
          "type": "address"
        }
      ],
      "stateMutability": "view",
      "type": "function",
      "constant": true
    },
    {
      "inputs": [],
      "name": "renounceOwnership",
      "outputs": [],
      "stateMutability": "nonpayable",
      "type": "function"
    },
    {
      "inputs": [
        {
          "internalType": "bytes32",
          "name": "role",
          "type": "bytes32"
        },
        {
          "internalType": "address",
          "name": "account",
          "type": "address"
        }
      ],
      "name": "renounceRole",
      "outputs": [],
      "stateMutability": "nonpayable",
      "type": "function"
    },
    {
      "inputs": [
        {
          "internalType": "bytes32",
          "name": "role",
          "type": "bytes32"
        },
        {
          "internalType": "address",
          "name": "account",
          "type": "address"
        }
      ],
      "name": "revokeRole",
      "outputs": [],
      "stateMutability": "nonpayable",
      "type": "function"
    },
    {
      "inputs": [
        {
          "internalType": "bytes4",
          "name": "interfaceId",
          "type": "bytes4"
        }
      ],
      "name": "supportsInterface",
      "outputs": [
        {
          "internalType": "bool",
          "name": "",
          "type": "bool"
        }
      ],
      "stateMutability": "view",
      "type": "function",
      "constant": true
    },
    {
      "inputs": [
        {
          "internalType": "address",
          "name": "newOwner",
          "type": "address"
        }
      ],
      "name": "transferOwnership",
      "outputs": [],
      "stateMutability": "nonpayable",
      "type": "function"
    },
    {
      "inputs": [
        {
          "internalType": "address",
          "name": "userAddress",
          "type": "address"
        }
      ],
      "name": "addAdmin",
      "outputs": [],
      "stateMutability": "nonpayable",
      "type": "function"
    },
    {
      "inputs": [
        {
          "internalType": "address",
          "name": "userAddress",
          "type": "address"
        }
      ],
      "name": "removeAdmin",
      "outputs": [],
      "stateMutability": "nonpayable",
      "type": "function"
    },
    {
      "inputs": [
        {
          "internalType": "address",
          "name": "userAddress",
          "type": "address"
        }
      ],
      "name": "addBooker",
      "outputs": [],
      "stateMutability": "nonpayable",
      "type": "function"
    },
    {
      "inputs": [
        {
          "internalType": "address",
          "name": "userAddress",
          "type": "address"
        }
      ],
      "name": "removeBooker",
      "outputs": [],
      "stateMutability": "nonpayable",
      "type": "function"
    },
    {
      "inputs": [
        {
          "internalType": "uint8",
          "name": "roomId",
          "type": "uint8"
        },
        {
          "internalType": "uint8",
          "name": "reservationTime",
          "type": "uint8"
        }
      ],
      "name": "createReservation",
      "outputs": [],
      "stateMutability": "nonpayable",
      "type": "function"
    },
    {
      "inputs": [
        {
          "internalType": "uint8",
          "name": "roomId",
          "type": "uint8"
        },
        {
          "internalType": "uint8",
          "name": "reservationTime",
          "type": "uint8"
        }
      ],
      "name": "removeReservation",
      "outputs": [],
      "stateMutability": "nonpayable",
      "type": "function"
    },
    {
      "inputs": [
        {
          "internalType": "uint8",
          "name": "roomId",
          "type": "uint8"
        }
      ],
      "name": "getRoomReservation",
      "outputs": [
        {
          "internalType": "uint8[]",
          "name": "",
          "type": "uint8[]"
        }
      ],
      "stateMutability": "view",
      "type": "function",
      "constant": true
    },
    {
      "inputs": [
        {
          "internalType": "uint8",
          "name": "roomId",
          "type": "uint8"
        },
        {
          "internalType": "uint8",
          "name": "reservationTime",
          "type": "uint8"
        }
      ],
      "name": "getReservationDetails",
      "outputs": [
        {
          "components": [
            {
              "internalType": "address",
              "name": "bookerAddress",
              "type": "address"
            },
            {
              "internalType": "uint8",
              "name": "reservationTime",
              "type": "uint8"
            }
          ],
          "internalType": "struct RoomBooking.Room",
          "name": "",
          "type": "tuple"
        }
      ],
      "stateMutability": "view",
      "type": "function",
      "constant": true
    }
  ],
  "bytecode": "0x60806040523480156200001157600080fd5b506200003262000026620000bc60201b60201c565b620000c460201b60201c565b620000647fa49807205ce4d355092ef5a8a18f56e8913cf4a201fbe287825b095693c21775336200018a60201b60201c565b620000b67f53b4a85069ab6bb594309a96f561a4f91f03327c3846a1547845c47d8386d7b07fa49807205ce4d355092ef5a8a18f56e8913cf4a201fbe287825b095693c21775620001a060201b60201c565b6200037d565b600033905090565b6000600160009054906101000a900473ffffffffffffffffffffffffffffffffffffffff16905081600160006101000a81548173ffffffffffffffffffffffffffffffffffffffff021916908373ffffffffffffffffffffffffffffffffffffffff1602179055508173ffffffffffffffffffffffffffffffffffffffff168173ffffffffffffffffffffffffffffffffffffffff167f8be0079c531659141344cd1fd0a4f28419497f9722a3daafe3b4186f6b6457e060405160405180910390a35050565b6200019c82826200020360201b60201c565b5050565b6000620001b383620002f460201b60201c565b905081600080858152602001908152602001600020600101819055508181847fbd79b86ffe0ab8e8776151514217cd7cacd52c909f66475c3af44e129f0b00ff60405160405180910390a4505050565b6200021582826200031360201b60201c565b620002f057600160008084815260200190815260200160002060000160008373ffffffffffffffffffffffffffffffffffffffff1673ffffffffffffffffffffffffffffffffffffffff16815260200190815260200160002060006101000a81548160ff02191690831515021790555062000295620000bc60201b60201c565b73ffffffffffffffffffffffffffffffffffffffff168173ffffffffffffffffffffffffffffffffffffffff16837f2f8788117e7eff1d82e926ec794901d17c78024a50270940304540a733656f0d60405160405180910390a45b5050565b6000806000838152602001908152602001600020600101549050919050565b600080600084815260200190815260200160002060000160008373ffffffffffffffffffffffffffffffffffffffff1673ffffffffffffffffffffffffffffffffffffffff16815260200190815260200160002060009054906101000a900460ff16905092915050565b61223c806200038d6000396000f3fe608060405234801561001057600080fd5b506004361061012c5760003560e01c8063715018a6116100ad578063a217fddf11610071578063a217fddf1461032d578063d547741f1461034b578063f2fde38b14610367578063f3922ce414610383578063f6e249ca1461039f5761012c565b8063715018a61461029957806375b238fc146102a3578063862490ac146102c15780638da5cb5b146102df57806391d14854146102fd5761012c565b806331d601c8116100f457806331d601c8146101e557806336568abe146102015780634cc3eae91461021d578063704802751461024d578063710f95c1146102695761012c565b806301ffc9a71461013157806311068a5e146101615780631785f53c1461017d578063248a9ca3146101995780632f2ff15d146101c9575b600080fd5b61014b60048036038101906101469190611656565b6103bb565b604051610158919061169e565b60405180910390f35b61017b60048036038101906101769190611717565b610435565b005b61019760048036038101906101929190611717565b6104cb565b005b6101b360048036038101906101ae919061177a565b610574565b6040516101c091906117b6565b60405180910390f35b6101e360048036038101906101de91906117d1565b610593565b005b6101ff60048036038101906101fa919061184a565b6105bc565b005b61021b600480360381019061021691906117d1565b61077e565b005b6102376004803603810190610232919061184a565b610801565b60405161024491906118d7565b60405180910390f35b61026760048036038101906102629190611717565b61092b565b005b610283600480360381019061027e91906118f2565b6109d4565b60405161029091906119ce565b60405180910390f35b6102a1610b11565b005b6102ab610b99565b6040516102b891906117b6565b60405180910390f35b6102c9610bbd565b6040516102d691906117b6565b60405180910390f35b6102e7610be1565b6040516102f491906119ff565b60405180910390f35b610317600480360381019061031291906117d1565b610c0b565b604051610324919061169e565b60405180910390f35b610335610c75565b60405161034291906117b6565b60405180910390f35b610365600480360381019061036091906117d1565b610c7c565b005b610381600480360381019061037c9190611717565b610ca5565b005b61039d60048036038101906103989190611717565b610d9c565b005b6103b960048036038101906103b4919061184a565b610e32565b005b60007f7965db0b000000000000000000000000000000000000000000000000000000007bffffffffffffffffffffffffffffffffffffffffffffffffffffffff1916827bffffffffffffffffffffffffffffffffffffffffffffffffffffffff1916148061042e575061042d82610ff4565b5b9050919050565b61045f7fa49807205ce4d355092ef5a8a18f56e8913cf4a201fbe287825b095693c2177533610c0b565b61049e576040517f08c379a000000000000000000000000000000000000000000000000000000000815260040161049590611a77565b60405180910390fd5b6104c87f53b4a85069ab6bb594309a96f561a4f91f03327c3846a1547845c47d8386d7b08261105e565b50565b6104d361113f565b73ffffffffffffffffffffffffffffffffffffffff166104f1610be1565b73ffffffffffffffffffffffffffffffffffffffff1614610547576040517f08c379a000000000000000000000000000000000000000000000000000000000815260040161053e90611ae3565b60405180910390fd5b6105717fa49807205ce4d355092ef5a8a18f56e8913cf4a201fbe287825b095693c2177582611147565b50565b6000806000838152602001908152602001600020600101549050919050565b61059c82610574565b6105ad816105a861113f565b611227565b6105b78383611147565b505050565b6000600260008460ff1660ff16815260200190815260200160002060000160008360ff1660ff16815260200190815260200160002060000160149054906101000a900460ff1660ff1603610645576040517f08c379a000000000000000000000000000000000000000000000000000000000815260040161063c90611b4f565b60405180910390fd5b3373ffffffffffffffffffffffffffffffffffffffff16600260008460ff1660ff16815260200190815260200160002060000160008360ff1660ff16815260200190815260200160002060000160009054906101000a900473ffffffffffffffffffffffffffffffffffffffff1673ffffffffffffffffffffffffffffffffffffffff1614610709576040517f08c379a000000000000000000000000000000000000000000000000000000000815260040161070090611be1565b60405180910390fd5b600260008360ff1660ff16815260200190815260200160002060000160008260ff1660ff168152602001908152602001600020600080820160006101000a81549073ffffffffffffffffffffffffffffffffffffffff02191690556000820160146101000a81549060ff021916905550505050565b61078661113f565b73ffffffffffffffffffffffffffffffffffffffff168173ffffffffffffffffffffffffffffffffffffffff16146107f3576040517f08c379a00000000000000000000000000000000000000000000000000000000081526004016107ea90611c73565b60405180910390fd5b6107fd828261105e565b5050565b6108096115c6565b6108337fa49807205ce4d355092ef5a8a18f56e8913cf4a201fbe287825b095693c2177533610c0b565b610872576040517f08c379a000000000000000000000000000000000000000000000000000000000815260040161086990611a77565b60405180910390fd5b600260008460ff1660ff16815260200190815260200160002060000160008360ff1660ff1681526020019081526020016000206040518060400160405290816000820160009054906101000a900473ffffffffffffffffffffffffffffffffffffffff1673ffffffffffffffffffffffffffffffffffffffff1673ffffffffffffffffffffffffffffffffffffffff1681526020016000820160149054906101000a900460ff1660ff1660ff1681525050905092915050565b61093361113f565b73ffffffffffffffffffffffffffffffffffffffff16610951610be1565b73ffffffffffffffffffffffffffffffffffffffff16146109a7576040517f08c379a000000000000000000000000000000000000000000000000000000000815260040161099e90611ae3565b60405180910390fd5b6109d17fa49807205ce4d355092ef5a8a18f56e8913cf4a201fbe287825b095693c2177582611147565b50565b60606000600c67ffffffffffffffff8111156109f3576109f2611c93565b5b604051908082528060200260200182016040528015610a215781602001602082028036833780820191505090505b5090506000600190505b600c8160ff161015610b07576000600260008660ff1660ff16815260200190815260200160002060000160008360ff1660ff16815260200190815260200160002060000160149054906101000a900460ff1660ff1614610af457600260008560ff1660ff16815260200190815260200160002060000160008260ff1660ff16815260200190815260200160002060000160149054906101000a900460ff16828260ff1681518110610adf57610ade611cc2565b5b602002602001019060ff16908160ff16815250505b8080610aff90611d20565b915050610a2b565b5080915050919050565b610b1961113f565b73ffffffffffffffffffffffffffffffffffffffff16610b37610be1565b73ffffffffffffffffffffffffffffffffffffffff1614610b8d576040517f08c379a0000000000000000000000000000000000000000000000000000000008152600401610b8490611ae3565b60405180910390fd5b610b9760006112c4565b565b7fa49807205ce4d355092ef5a8a18f56e8913cf4a201fbe287825b095693c2177581565b7f53b4a85069ab6bb594309a96f561a4f91f03327c3846a1547845c47d8386d7b081565b6000600160009054906101000a900473ffffffffffffffffffffffffffffffffffffffff16905090565b600080600084815260200190815260200160002060000160008373ffffffffffffffffffffffffffffffffffffffff1673ffffffffffffffffffffffffffffffffffffffff16815260200190815260200160002060009054906101000a900460ff16905092915050565b6000801b81565b610c8582610574565b610c9681610c9161113f565b611227565b610ca0838361105e565b505050565b610cad61113f565b73ffffffffffffffffffffffffffffffffffffffff16610ccb610be1565b73ffffffffffffffffffffffffffffffffffffffff1614610d21576040517f08c379a0000000000000000000000000000000000000000000000000000000008152600401610d1890611ae3565b60405180910390fd5b600073ffffffffffffffffffffffffffffffffffffffff168173ffffffffffffffffffffffffffffffffffffffff1603610d90576040517f08c379a0000000000000000000000000000000000000000000000000000000008152600401610d8790611dbb565b60405180910390fd5b610d99816112c4565b50565b610dc67fa49807205ce4d355092ef5a8a18f56e8913cf4a201fbe287825b095693c2177533610c0b565b610e05576040517f08c379a0000000000000000000000000000000000000000000000000000000008152600401610dfc90611a77565b60405180910390fd5b610e2f7f53b4a85069ab6bb594309a96f561a4f91f03327c3846a1547845c47d8386d7b082611147565b50565b610e5c7f53b4a85069ab6bb594309a96f561a4f91f03327c3846a1547845c47d8386d7b033610c0b565b610e9b576040517f08c379a0000000000000000000000000000000000000000000000000000000008152600401610e9290611e4d565b60405180910390fd5b6000600260008460ff1660ff16815260200190815260200160002060000160008360ff1660ff16815260200190815260200160002060000160149054906101000a900460ff1660ff1614610f24576040517f08c379a0000000000000000000000000000000000000000000000000000000008152600401610f1b90611edf565b60405180910390fd5b60405180604001604052803373ffffffffffffffffffffffffffffffffffffffff1681526020018260ff16815250600260008460ff1660ff16815260200190815260200160002060000160008360ff1660ff16815260200190815260200160002060008201518160000160006101000a81548173ffffffffffffffffffffffffffffffffffffffff021916908373ffffffffffffffffffffffffffffffffffffffff16021790555060208201518160000160146101000a81548160ff021916908360ff1602179055509050505050565b60007f01ffc9a7000000000000000000000000000000000000000000000000000000007bffffffffffffffffffffffffffffffffffffffffffffffffffffffff1916827bffffffffffffffffffffffffffffffffffffffffffffffffffffffff1916149050919050565b6110688282610c0b565b1561113b57600080600084815260200190815260200160002060000160008373ffffffffffffffffffffffffffffffffffffffff1673ffffffffffffffffffffffffffffffffffffffff16815260200190815260200160002060006101000a81548160ff0219169083151502179055506110e061113f565b73ffffffffffffffffffffffffffffffffffffffff168173ffffffffffffffffffffffffffffffffffffffff16837ff6391f5c32d9c69d2a47ea670b442974b53935d1edc7fd64eb21e047a839171b60405160405180910390a45b5050565b600033905090565b6111518282610c0b565b61122357600160008084815260200190815260200160002060000160008373ffffffffffffffffffffffffffffffffffffffff1673ffffffffffffffffffffffffffffffffffffffff16815260200190815260200160002060006101000a81548160ff0219169083151502179055506111c861113f565b73ffffffffffffffffffffffffffffffffffffffff168173ffffffffffffffffffffffffffffffffffffffff16837f2f8788117e7eff1d82e926ec794901d17c78024a50270940304540a733656f0d60405160405180910390a45b5050565b6112318282610c0b565b6112c0576112568173ffffffffffffffffffffffffffffffffffffffff16601461138a565b6112648360001c602061138a565b604051602001611275929190612011565b6040516020818303038152906040526040517f08c379a00000000000000000000000000000000000000000000000000000000081526004016112b79190612095565b60405180910390fd5b5050565b6000600160009054906101000a900473ffffffffffffffffffffffffffffffffffffffff16905081600160006101000a81548173ffffffffffffffffffffffffffffffffffffffff021916908373ffffffffffffffffffffffffffffffffffffffff1602179055508173ffffffffffffffffffffffffffffffffffffffff168173ffffffffffffffffffffffffffffffffffffffff167f8be0079c531659141344cd1fd0a4f28419497f9722a3daafe3b4186f6b6457e060405160405180910390a35050565b60606000600283600261139d91906120c1565b6113a7919061211b565b67ffffffffffffffff8111156113c0576113bf611c93565b5b6040519080825280601f01601f1916602001820160405280156113f25781602001600182028036833780820191505090505b5090507f30000000000000000000000000000000000000000000000000000000000000008160008151811061142a57611429611cc2565b5b60200101907effffffffffffffffffffffffffffffffffffffffffffffffffffffffffffff1916908160001a9053507f78000000000000000000000000000000000000000000000000000000000000008160018151811061148e5761148d611cc2565b5b60200101907effffffffffffffffffffffffffffffffffffffffffffffffffffffffffffff1916908160001a905350600060018460026114ce91906120c1565b6114d8919061211b565b90505b6001811115611578577f3031323334353637383961626364656600000000000000000000000000000000600f86166010811061151a57611519611cc2565b5b1a60f81b82828151811061153157611530611cc2565b5b60200101907effffffffffffffffffffffffffffffffffffffffffffffffffffffffffffff1916908160001a905350600485901c94508061157190612171565b90506114db565b50600084146115bc576040517f08c379a00000000000000000000000000000000000000000000000000000000081526004016115b3906121e6565b60405180910390fd5b8091505092915050565b6040518060400160405280600073ffffffffffffffffffffffffffffffffffffffff168152602001600060ff1681525090565b600080fd5b60007fffffffff0000000000000000000000000000000000000000000000000000000082169050919050565b611633816115fe565b811461163e57600080fd5b50565b6000813590506116508161162a565b92915050565b60006020828403121561166c5761166b6115f9565b5b600061167a84828501611641565b91505092915050565b60008115159050919050565b61169881611683565b82525050565b60006020820190506116b3600083018461168f565b92915050565b600073ffffffffffffffffffffffffffffffffffffffff82169050919050565b60006116e4826116b9565b9050919050565b6116f4816116d9565b81146116ff57600080fd5b50565b600081359050611711816116eb565b92915050565b60006020828403121561172d5761172c6115f9565b5b600061173b84828501611702565b91505092915050565b6000819050919050565b61175781611744565b811461176257600080fd5b50565b6000813590506117748161174e565b92915050565b6000602082840312156117905761178f6115f9565b5b600061179e84828501611765565b91505092915050565b6117b081611744565b82525050565b60006020820190506117cb60008301846117a7565b92915050565b600080604083850312156117e8576117e76115f9565b5b60006117f685828601611765565b925050602061180785828601611702565b9150509250929050565b600060ff82169050919050565b61182781611811565b811461183257600080fd5b50565b6000813590506118448161181e565b92915050565b60008060408385031215611861576118606115f9565b5b600061186f85828601611835565b925050602061188085828601611835565b9150509250929050565b611893816116d9565b82525050565b6118a281611811565b82525050565b6040820160008201516118be600085018261188a565b5060208201516118d16020850182611899565b50505050565b60006040820190506118ec60008301846118a8565b92915050565b600060208284031215611908576119076115f9565b5b600061191684828501611835565b91505092915050565b600081519050919050565b600082825260208201905092915050565b6000819050602082019050919050565b60006119578383611899565b60208301905092915050565b6000602082019050919050565b600061197b8261191f565b611985818561192a565b93506119908361193b565b8060005b838110156119c15781516119a8888261194b565b97506119b383611963565b925050600181019050611994565b5085935050505092915050565b600060208201905081810360008301526119e88184611970565b905092915050565b6119f9816116d9565b82525050565b6000602082019050611a1460008301846119f0565b92915050565b600082825260208201905092915050565b7f596f75206e65656420746f20626520616e2061646d696e000000000000000000600082015250565b6000611a61601783611a1a565b9150611a6c82611a2b565b602082019050919050565b60006020820190508181036000830152611a9081611a54565b9050919050565b7f4f776e61626c653a2063616c6c6572206973206e6f7420746865206f776e6572600082015250565b6000611acd602083611a1a565b9150611ad882611a97565b602082019050919050565b60006020820190508181036000830152611afc81611ac0565b9050919050565b7f4e6f207265736572766174696f6e20617420746869732074696d650000000000600082015250565b6000611b39601b83611a1a565b9150611b4482611b03565b602082019050919050565b60006020820190508181036000830152611b6881611b2c565b9050919050565b7f596f752063616e206f6e6c792063616e63656c20796f7572206f776e2072657360008201527f6572766174696f6e000000000000000000000000000000000000000000000000602082015250565b6000611bcb602883611a1a565b9150611bd682611b6f565b604082019050919050565b60006020820190508181036000830152611bfa81611bbe565b9050919050565b7f416363657373436f6e74726f6c3a2063616e206f6e6c792072656e6f756e636560008201527f20726f6c657320666f722073656c660000000000000000000000000000000000602082015250565b6000611c5d602f83611a1a565b9150611c6882611c01565b604082019050919050565b60006020820190508181036000830152611c8c81611c50565b9050919050565b7f4e487b7100000000000000000000000000000000000000000000000000000000600052604160045260246000fd5b7f4e487b7100000000000000000000000000000000000000000000000000000000600052603260045260246000fd5b7f4e487b7100000000000000000000000000000000000000000000000000000000600052601160045260246000fd5b6000611d2b82611811565b915060ff8203611d3e57611d3d611cf1565b5b600182019050919050565b7f4f776e61626c653a206e6577206f776e657220697320746865207a65726f206160008201527f6464726573730000000000000000000000000000000000000000000000000000602082015250565b6000611da5602683611a1a565b9150611db082611d49565b604082019050919050565b60006020820190508181036000830152611dd481611d98565b9050919050565b7f596f75206e65656420746f2062652068617665206120626f6f6b657220726f6c60008201527f6500000000000000000000000000000000000000000000000000000000000000602082015250565b6000611e37602183611a1a565b9150611e4282611ddb565b604082019050919050565b60006020820190508181036000830152611e6681611e2a565b9050919050565b7f526f6f6d206973206e6f7420617661696c61626c65206174207468617420746960008201527f6d65000000000000000000000000000000000000000000000000000000000000602082015250565b6000611ec9602283611a1a565b9150611ed482611e6d565b604082019050919050565b60006020820190508181036000830152611ef881611ebc565b9050919050565b600081905092915050565b7f416363657373436f6e74726f6c3a206163636f756e7420000000000000000000600082015250565b6000611f40601783611eff565b9150611f4b82611f0a565b601782019050919050565b600081519050919050565b60005b83811015611f7f578082015181840152602081019050611f64565b83811115611f8e576000848401525b50505050565b6000611f9f82611f56565b611fa98185611eff565b9350611fb9818560208601611f61565b80840191505092915050565b7f206973206d697373696e6720726f6c6520000000000000000000000000000000600082015250565b6000611ffb601183611eff565b915061200682611fc5565b601182019050919050565b600061201c82611f33565b91506120288285611f94565b915061203382611fee565b915061203f8284611f94565b91508190509392505050565b6000601f19601f8301169050919050565b600061206782611f56565b6120718185611a1a565b9350612081818560208601611f61565b61208a8161204b565b840191505092915050565b600060208201905081810360008301526120af818461205c565b905092915050565b6000819050919050565b60006120cc826120b7565b91506120d7836120b7565b9250817fffffffffffffffffffffffffffffffffffffffffffffffffffffffffffffffff04831182151516156121105761210f611cf1565b5b828202905092915050565b6000612126826120b7565b9150612131836120b7565b9250827fffffffffffffffffffffffffffffffffffffffffffffffffffffffffffffffff0382111561216657612165611cf1565b5b828201905092915050565b600061217c826120b7565b91506000820361218f5761218e611cf1565b5b600182039050919050565b7f537472696e67733a20686578206c656e67746820696e73756666696369656e74600082015250565b60006121d0602083611a1a565b91506121db8261219a565b602082019050919050565b600060208201905081810360008301526121ff816121c3565b905091905056fea26469706673582212206669fac082a333dc32f01e22ba0cca169f8198465982f095ecc68b3789cad2df64736f6c634300080d0033",
  "immutableReferences": {},
  "source": "// SPDX-License-Identifier: MIT\npragma solidity 0.8.13;\n\nimport \"./node_modules/@openzeppelin/contracts/access/AccessControl.sol\";\nimport \"./node_modules/@openzeppelin/contracts/access/Ownable.sol\";\n\ncontract RoomBooking is AccessControl, Ownable {\n  bytes32 public constant ADMIN_ROLE = keccak256(\"ADMIN_ROLE\");\n  bytes32 public constant BOOKER_ROLE = keccak256(\"BOOKER_ROLE\");\n\n  struct Room {\n    address bookerAddress;\n    uint8 reservationTime;\n  }\n\n  struct Reservation {\n    mapping(uint8 => Room) reservedSlots;\n  }\n  mapping(uint8 => Reservation) private reservations;\n\n  constructor ()\n  {\n    // Give Owner Admin Role\n    _setupRole(ADMIN_ROLE, msg.sender);\n    _setRoleAdmin(BOOKER_ROLE, ADMIN_ROLE);\n  }\n\n  // USER MANAGEMENT\n  function addAdmin(address userAddress) public onlyOwner {\n    _grantRole(ADMIN_ROLE, userAddress);\n  }\n\n  function removeAdmin(address userAddress) public onlyOwner {\n    _grantRole(ADMIN_ROLE, userAddress);\n  }\n\n  function addBooker(address userAddress) public {\n    require(hasRole(ADMIN_ROLE, msg.sender), \"You need to be an admin\");\n    _grantRole(BOOKER_ROLE, userAddress);\n  }\n\n  function removeBooker(address userAddress) public {\n    require(hasRole(ADMIN_ROLE, msg.sender), \"You need to be an admin\");\n    _revokeRole(BOOKER_ROLE, userAddress);\n  }\n\n  // ROOM BOOKING\n  function createReservation(uint8 roomId, uint8 reservationTime) public {\n    require(hasRole(BOOKER_ROLE, msg.sender), \"You need to be have a booker role\");\n    require(reservations[roomId].reservedSlots[reservationTime].reservationTime == 0, \"Room is not available at that time\");\n    reservations[roomId].reservedSlots[reservationTime] = Room({\n      bookerAddress: msg.sender,\n      reservationTime: reservationTime\n    });\n  }\n\n  function removeReservation(uint8 roomId, uint8 reservationTime) public {\n    require(reservations[roomId].reservedSlots[reservationTime].reservationTime != 0, \"No reservation at this time\");\n    require(reservations[roomId].reservedSlots[reservationTime].bookerAddress == msg.sender, \"You can only cancel your own reservation\");\n\n    delete reservations[roomId].reservedSlots[reservationTime];\n  }\n\n  function getRoomReservation(uint8 roomId) external view returns (uint8[] memory) {\n    uint8[] memory reservedSlot = new uint8[](12);\n    for (uint8 i = 1; i < 12; i++) {\n      if (reservations[roomId].reservedSlots[i].reservationTime != 0) {\n        reservedSlot[i] = reservations[roomId].reservedSlots[i].reservationTime;\n      }\n    }\n    return reservedSlot;\n  }\n\n  function getReservationDetails(uint8 roomId, uint8 reservationTime) external view returns (Room memory) {\n    require(hasRole(ADMIN_ROLE, msg.sender), \"You need to be an admin\");\n    return reservations[roomId].reservedSlots[reservationTime];\n  }\n}",
  "sourcePath": "/Users/ming/code/cola-room-booking/contracts/RoomBooking.sol",
  "compiler": {
    "name": "solc",
    "version": "0.8.13+commit.abaa5c0e.Emscripten.clang"
  },
  "schemaVersion": "3.4.6",
  "updatedAt": "2022-04-04T13:16:46.913Z",
  "networkType": "ethereum",
  "devdoc": {
    "kind": "dev",
    "methods": {
      "getRoleAdmin(bytes32)": {
        "details": "Returns the admin role that controls `role`. See {grantRole} and {revokeRole}. To change a role's admin, use {_setRoleAdmin}."
      },
      "grantRole(bytes32,address)": {
        "details": "Grants `role` to `account`. If `account` had not been already granted `role`, emits a {RoleGranted} event. Requirements: - the caller must have ``role``'s admin role."
      },
      "hasRole(bytes32,address)": {
        "details": "Returns `true` if `account` has been granted `role`."
      },
      "owner()": {
        "details": "Returns the address of the current owner."
      },
      "renounceOwnership()": {
        "details": "Leaves the contract without owner. It will not be possible to call `onlyOwner` functions anymore. Can only be called by the current owner. NOTE: Renouncing ownership will leave the contract without an owner, thereby removing any functionality that is only available to the owner."
      },
      "renounceRole(bytes32,address)": {
        "details": "Revokes `role` from the calling account. Roles are often managed via {grantRole} and {revokeRole}: this function's purpose is to provide a mechanism for accounts to lose their privileges if they are compromised (such as when a trusted device is misplaced). If the calling account had been revoked `role`, emits a {RoleRevoked} event. Requirements: - the caller must be `account`."
      },
      "revokeRole(bytes32,address)": {
        "details": "Revokes `role` from `account`. If `account` had been granted `role`, emits a {RoleRevoked} event. Requirements: - the caller must have ``role``'s admin role."
      },
      "supportsInterface(bytes4)": {
        "details": "See {IERC165-supportsInterface}."
      },
      "transferOwnership(address)": {
        "details": "Transfers ownership of the contract to a new account (`newOwner`). Can only be called by the current owner."
      }
    },
    "version": 1
  },
  "userdoc": {
    "kind": "user",
    "methods": {},
    "version": 1
  }
}