{
  "contractName": "RoomBooking",
  "abi": [
    {
      "anonymous": false,
      "inputs": [
        {
          "indexed": true,
          "internalType": "address",
          "name": "previousOwner",
          "type": "address"
        },
        {
          "indexed": true,
          "internalType": "address",
          "name": "newOwner",
          "type": "address"
        }
      ],
      "name": "OwnershipTransferred",
      "type": "event"
    },
    {
      "inputs": [],
      "name": "owner",
      "outputs": [
        {
          "internalType": "address",
          "name": "",
          "type": "address"
        }
      ],
      "stateMutability": "view",
      "type": "function",
      "constant": true
    },
    {
      "inputs": [],
      "name": "renounceOwnership",
      "outputs": [],
      "stateMutability": "nonpayable",
      "type": "function"
    },
    {
      "inputs": [
        {
          "internalType": "address",
          "name": "newOwner",
          "type": "address"
        }
      ],
      "name": "transferOwnership",
      "outputs": [],
      "stateMutability": "nonpayable",
      "type": "function"
    },
    {
      "inputs": [
        {
          "internalType": "uint8",
          "name": "reservationTime",
          "type": "uint8"
        },
        {
          "internalType": "uint8",
          "name": "roomId",
          "type": "uint8"
        }
      ],
      "name": "createReservation",
      "outputs": [],
      "stateMutability": "nonpayable",
      "type": "function"
    },
    {
      "inputs": [
        {
          "internalType": "uint8",
          "name": "time",
          "type": "uint8"
        },
        {
          "internalType": "uint8",
          "name": "roomId",
          "type": "uint8"
        }
      ],
      "name": "removeReservation",
      "outputs": [],
      "stateMutability": "nonpayable",
      "type": "function"
    },
    {
      "inputs": [
        {
          "internalType": "uint8",
          "name": "roomId",
          "type": "uint8"
        }
      ],
      "name": "getRoomReservation",
      "outputs": [
        {
          "internalType": "uint8[]",
          "name": "",
          "type": "uint8[]"
        }
      ],
      "stateMutability": "view",
      "type": "function",
      "constant": true
    }
  ],
  "bytecode": "0x608060405234801561001057600080fd5b5061002d61002261003260201b60201c565b61003a60201b60201c565b6100fe565b600033905090565b60008060009054906101000a900473ffffffffffffffffffffffffffffffffffffffff169050816000806101000a81548173ffffffffffffffffffffffffffffffffffffffff021916908373ffffffffffffffffffffffffffffffffffffffff1602179055508173ffffffffffffffffffffffffffffffffffffffff168173ffffffffffffffffffffffffffffffffffffffff167f8be0079c531659141344cd1fd0a4f28419497f9722a3daafe3b4186f6b6457e060405160405180910390a35050565b610daa8061010d6000396000f3fe608060405234801561001057600080fd5b50600436106100625760003560e01c806331d601c814610067578063710f95c114610083578063715018a6146100b35780638da5cb5b146100bd578063f2fde38b146100db578063f6e249ca146100f7575b600080fd5b610081600480360381019061007c919061081d565b610113565b005b61009d6004803603810190610098919061085d565b6102d5565b6040516100aa9190610948565b60405180910390f35b6100bb610412565b005b6100c561049a565b6040516100d291906109ab565b60405180910390f35b6100f560048036038101906100f091906109f2565b6104c3565b005b610111600480360381019061010c919061081d565b6105ba565b005b6000600160008360ff1660ff16815260200190815260200160002060000160008460ff1660ff16815260200190815260200160002060000160149054906101000a900460ff1660ff160361019c576040517f08c379a000000000000000000000000000000000000000000000000000000000815260040161019390610a7c565b60405180910390fd5b3373ffffffffffffffffffffffffffffffffffffffff16600160008360ff1660ff16815260200190815260200160002060000160008460ff1660ff16815260200190815260200160002060000160009054906101000a900473ffffffffffffffffffffffffffffffffffffffff1673ffffffffffffffffffffffffffffffffffffffff1614610260576040517f08c379a000000000000000000000000000000000000000000000000000000000815260040161025790610b0e565b60405180910390fd5b600160008260ff1660ff16815260200190815260200160002060000160008360ff1660ff168152602001908152602001600020600080820160006101000a81549073ffffffffffffffffffffffffffffffffffffffff02191690556000820160146101000a81549060ff021916905550505050565b60606000600c67ffffffffffffffff8111156102f4576102f3610b2e565b5b6040519080825280602002602001820160405280156103225781602001602082028036833780820191505090505b5090506000600190505b600c8160ff161015610408576000600160008660ff1660ff16815260200190815260200160002060000160008360ff1660ff16815260200190815260200160002060000160149054906101000a900460ff1660ff16146103f557600160008560ff1660ff16815260200190815260200160002060000160008260ff1660ff16815260200190815260200160002060000160149054906101000a900460ff16828260ff16815181106103e0576103df610b5d565b5b602002602001019060ff16908160ff16815250505b808061040090610bbb565b91505061032c565b5080915050919050565b61041a610713565b73ffffffffffffffffffffffffffffffffffffffff1661043861049a565b73ffffffffffffffffffffffffffffffffffffffff161461048e576040517f08c379a000000000000000000000000000000000000000000000000000000000815260040161048590610c30565b60405180910390fd5b610498600061071b565b565b60008060009054906101000a900473ffffffffffffffffffffffffffffffffffffffff16905090565b6104cb610713565b73ffffffffffffffffffffffffffffffffffffffff166104e961049a565b73ffffffffffffffffffffffffffffffffffffffff161461053f576040517f08c379a000000000000000000000000000000000000000000000000000000000815260040161053690610c30565b60405180910390fd5b600073ffffffffffffffffffffffffffffffffffffffff168173ffffffffffffffffffffffffffffffffffffffff16036105ae576040517f08c379a00000000000000000000000000000000000000000000000000000000081526004016105a590610cc2565b60405180910390fd5b6105b78161071b565b50565b6000600160008360ff1660ff16815260200190815260200160002060000160008460ff1660ff16815260200190815260200160002060000160149054906101000a900460ff1660ff1614610643576040517f08c379a000000000000000000000000000000000000000000000000000000000815260040161063a90610d54565b60405180910390fd5b60405180604001604052803373ffffffffffffffffffffffffffffffffffffffff1681526020018360ff16815250600160008360ff1660ff16815260200190815260200160002060000160008460ff1660ff16815260200190815260200160002060008201518160000160006101000a81548173ffffffffffffffffffffffffffffffffffffffff021916908373ffffffffffffffffffffffffffffffffffffffff16021790555060208201518160000160146101000a81548160ff021916908360ff1602179055509050505050565b600033905090565b60008060009054906101000a900473ffffffffffffffffffffffffffffffffffffffff169050816000806101000a81548173ffffffffffffffffffffffffffffffffffffffff021916908373ffffffffffffffffffffffffffffffffffffffff1602179055508173ffffffffffffffffffffffffffffffffffffffff168173ffffffffffffffffffffffffffffffffffffffff167f8be0079c531659141344cd1fd0a4f28419497f9722a3daafe3b4186f6b6457e060405160405180910390a35050565b600080fd5b600060ff82169050919050565b6107fa816107e4565b811461080557600080fd5b50565b600081359050610817816107f1565b92915050565b60008060408385031215610834576108336107df565b5b600061084285828601610808565b925050602061085385828601610808565b9150509250929050565b600060208284031215610873576108726107df565b5b600061088184828501610808565b91505092915050565b600081519050919050565b600082825260208201905092915050565b6000819050602082019050919050565b6108bf816107e4565b82525050565b60006108d183836108b6565b60208301905092915050565b6000602082019050919050565b60006108f58261088a565b6108ff8185610895565b935061090a836108a6565b8060005b8381101561093b57815161092288826108c5565b975061092d836108dd565b92505060018101905061090e565b5085935050505092915050565b6000602082019050818103600083015261096281846108ea565b905092915050565b600073ffffffffffffffffffffffffffffffffffffffff82169050919050565b60006109958261096a565b9050919050565b6109a58161098a565b82525050565b60006020820190506109c0600083018461099c565b92915050565b6109cf8161098a565b81146109da57600080fd5b50565b6000813590506109ec816109c6565b92915050565b600060208284031215610a0857610a076107df565b5b6000610a16848285016109dd565b91505092915050565b600082825260208201905092915050565b7f4e6f207265736572766174696f6e20617420746869732074696d650000000000600082015250565b6000610a66601b83610a1f565b9150610a7182610a30565b602082019050919050565b60006020820190508181036000830152610a9581610a59565b9050919050565b7f596f752063616e206f6e6c792063616e63656c20796f7572206f776e2072657360008201527f6572766174696f6e000000000000000000000000000000000000000000000000602082015250565b6000610af8602883610a1f565b9150610b0382610a9c565b604082019050919050565b60006020820190508181036000830152610b2781610aeb565b9050919050565b7f4e487b7100000000000000000000000000000000000000000000000000000000600052604160045260246000fd5b7f4e487b7100000000000000000000000000000000000000000000000000000000600052603260045260246000fd5b7f4e487b7100000000000000000000000000000000000000000000000000000000600052601160045260246000fd5b6000610bc6826107e4565b915060ff8203610bd957610bd8610b8c565b5b600182019050919050565b7f4f776e61626c653a2063616c6c6572206973206e6f7420746865206f776e6572600082015250565b6000610c1a602083610a1f565b9150610c2582610be4565b602082019050919050565b60006020820190508181036000830152610c4981610c0d565b9050919050565b7f4f776e61626c653a206e6577206f776e657220697320746865207a65726f206160008201527f6464726573730000000000000000000000000000000000000000000000000000602082015250565b6000610cac602683610a1f565b9150610cb782610c50565b604082019050919050565b60006020820190508181036000830152610cdb81610c9f565b9050919050565b7f526f6f6d206973206e6f7420617661696c61626c65206174207468617420746960008201527f6d65000000000000000000000000000000000000000000000000000000000000602082015250565b6000610d3e602283610a1f565b9150610d4982610ce2565b604082019050919050565b60006020820190508181036000830152610d6d81610d31565b905091905056fea2646970667358221220562bfc6ef9c665a639a62a8c6d76b9e1eb973d72ab4ae216e21f9d10cb2af91b64736f6c634300080d0033",
  "immutableReferences": {},
  "source": "// SPDX-License-Identifier: MIT\npragma solidity 0.8.13;\n\nimport \"./utils/Ownable.sol\";\n\ncontract RoomBooking is Ownable {\n  \n  struct Room {\n    address bookerAddress;\n    uint8 reservationTime;\n  }\n\n  struct Reservation {\n    mapping(uint8 => Room) reservedSlots;\n  }\n\n  mapping(uint8 => Reservation) private reservations;\n\n  // USER MANAGEMENT\n\n\n  // ROOM BOOKING\n  function createReservation(uint8 reservationTime, uint8 roomId) public {\n    require(reservations[roomId].reservedSlots[reservationTime].reservationTime == 0, \"Room is not available at that time\");\n    reservations[roomId].reservedSlots[reservationTime] = Room({\n      bookerAddress: msg.sender,\n      reservationTime: reservationTime\n    });\n  }\n\n\n  function removeReservation(uint8 time, uint8 roomId) public {\n    require(reservations[roomId].reservedSlots[time].reservationTime != 0, \"No reservation at this time\");\n    require(reservations[roomId].reservedSlots[time].bookerAddress == msg.sender, \"You can only cancel your own reservation\");\n\n    delete reservations[roomId].reservedSlots[time];\n  }\n\n  function getRoomReservation(uint8 roomId) external view returns (uint8[] memory) {\n    uint8[] memory reservedSlot = new uint8[](12);\n    for (uint8 i = 1; i < 12; i++) {\n      if (reservations[roomId].reservedSlots[i].reservationTime != 0) {\n        reservedSlot[i] = reservations[roomId].reservedSlots[i].reservationTime;\n      }\n    }\n    return reservedSlot;\n  }\n\n  // function getAllReservations() external view returns (string[] memory) {\n  //     string[] memory allReservations = new string[](20);\n  //     for (uint8 i = 0; i < 20; i++) {\n  //     uint8[] memory bookedRooms = new uint8[](12);\n  //     for (uint8 k = 1; k < 12; k++) {\n  //       if (reservations[i].reservedSlots[k].reservationTime != 0) {\n  //         bookedRooms[k] = reservations[i].reservedSlots[k].reservationTime;\n  //       }\n  //     }\n  //     allReservations[i] = string(bookedRooms);\n  //   }\n  //   return allReservations;\n  // }\n}",
  "sourcePath": "/Users/ming/code/cola-room-booking/contracts/RoomBooking.sol",
  "compiler": {
    "name": "solc",
    "version": "0.8.13+commit.abaa5c0e.Emscripten.clang"
  },
  "schemaVersion": "3.4.6",
  "updatedAt": "2022-04-03T13:15:33.313Z",
  "networkType": "ethereum",
  "devdoc": {
    "kind": "dev",
    "methods": {
      "owner()": {
        "details": "Returns the address of the current owner."
      },
      "renounceOwnership()": {
        "details": "Leaves the contract without owner. It will not be possible to call `onlyOwner` functions anymore. Can only be called by the current owner. NOTE: Renouncing ownership will leave the contract without an owner, thereby removing any functionality that is only available to the owner."
      },
      "transferOwnership(address)": {
        "details": "Transfers ownership of the contract to a new account (`newOwner`). Can only be called by the current owner."
      }
    },
    "version": 1
  },
  "userdoc": {
    "kind": "user",
    "methods": {},
    "version": 1
  }
}