{
  "contractName": "RoomBooking",
  "abi": [
    {
      "anonymous": false,
      "inputs": [
        {
          "indexed": true,
          "internalType": "address",
          "name": "previousOwner",
          "type": "address"
        },
        {
          "indexed": true,
          "internalType": "address",
          "name": "newOwner",
          "type": "address"
        }
      ],
      "name": "OwnershipTransferred",
      "type": "event"
    },
    {
      "inputs": [],
      "name": "owner",
      "outputs": [
        {
          "internalType": "address",
          "name": "",
          "type": "address"
        }
      ],
      "stateMutability": "view",
      "type": "function",
      "constant": true
    },
    {
      "inputs": [],
      "name": "renounceOwnership",
      "outputs": [],
      "stateMutability": "nonpayable",
      "type": "function"
    },
    {
      "inputs": [
        {
          "internalType": "address",
          "name": "newOwner",
          "type": "address"
        }
      ],
      "name": "transferOwnership",
      "outputs": [],
      "stateMutability": "nonpayable",
      "type": "function"
    },
    {
      "inputs": [
        {
          "internalType": "uint8",
          "name": "reservationTime",
          "type": "uint8"
        },
        {
          "internalType": "uint8",
          "name": "roomId",
          "type": "uint8"
        }
      ],
      "name": "createBooking",
      "outputs": [],
      "stateMutability": "nonpayable",
      "type": "function"
    },
    {
      "inputs": [
        {
          "internalType": "uint8",
          "name": "time",
          "type": "uint8"
        },
        {
          "internalType": "uint8",
          "name": "roomId",
          "type": "uint8"
        }
      ],
      "name": "removeBooking",
      "outputs": [],
      "stateMutability": "nonpayable",
      "type": "function"
    },
    {
      "inputs": [
        {
          "internalType": "uint8",
          "name": "roomId",
          "type": "uint8"
        }
      ],
      "name": "getReservation",
      "outputs": [
        {
          "internalType": "uint8[]",
          "name": "",
          "type": "uint8[]"
        }
      ],
      "stateMutability": "view",
      "type": "function",
      "constant": true
    },
    {
      "inputs": [],
      "name": "getAllReservations",
      "outputs": [
        {
          "internalType": "string[]",
          "name": "",
          "type": "string[]"
        }
      ],
      "stateMutability": "view",
      "type": "function",
      "constant": true
    }
  ],
  "bytecode": "0x608060405234801561001057600080fd5b5061002d61002261003260201b60201c565b61003a60201b60201c565b6100fe565b600033905090565b60008060009054906101000a900473ffffffffffffffffffffffffffffffffffffffff169050816000806101000a81548173ffffffffffffffffffffffffffffffffffffffff021916908373ffffffffffffffffffffffffffffffffffffffff1602179055508173ffffffffffffffffffffffffffffffffffffffff168173ffffffffffffffffffffffffffffffffffffffff167f8be0079c531659141344cd1fd0a4f28419497f9722a3daafe3b4186f6b6457e060405160405180910390a35050565b6111fa8061010d6000396000f3fe608060405234801561001057600080fd5b506004361061007d5760003560e01c80638da5cb5b1161005b5780638da5cb5b146100d8578063f2fde38b146100f6578063fbc6283314610112578063ff5b7bb8146101305761007d565b806328b5f7c014610082578063715018a61461009e578063865509aa146100a8575b600080fd5b61009c60048036038101906100979190610a49565b61014c565b005b6100a661030e565b005b6100c260048036038101906100bd9190610a89565b610396565b6040516100cf9190610b74565b60405180910390f35b6100e06104d3565b6040516100ed9190610bd7565b60405180910390f35b610110600480360381019061010b9190610c1e565b6104fc565b005b61011a6105f3565b6040516101279190610da6565b60405180910390f35b61014a60048036038101906101459190610a49565b6107e6565b005b6000600160008360ff1660ff16815260200190815260200160002060000160008460ff1660ff16815260200190815260200160002060000160149054906101000a900460ff1660ff16036101d5576040517f08c379a00000000000000000000000000000000000000000000000000000000081526004016101cc90610e25565b60405180910390fd5b3373ffffffffffffffffffffffffffffffffffffffff16600160008360ff1660ff16815260200190815260200160002060000160008460ff1660ff16815260200190815260200160002060000160009054906101000a900473ffffffffffffffffffffffffffffffffffffffff1673ffffffffffffffffffffffffffffffffffffffff1614610299576040517f08c379a000000000000000000000000000000000000000000000000000000000815260040161029090610eb7565b60405180910390fd5b600160008260ff1660ff16815260200190815260200160002060000160008360ff1660ff168152602001908152602001600020600080820160006101000a81549073ffffffffffffffffffffffffffffffffffffffff02191690556000820160146101000a81549060ff021916905550505050565b61031661093f565b73ffffffffffffffffffffffffffffffffffffffff166103346104d3565b73ffffffffffffffffffffffffffffffffffffffff161461038a576040517f08c379a000000000000000000000000000000000000000000000000000000000815260040161038190610f23565b60405180910390fd5b6103946000610947565b565b60606000600c67ffffffffffffffff8111156103b5576103b4610f43565b5b6040519080825280602002602001820160405280156103e35781602001602082028036833780820191505090505b5090506000600190505b600c8160ff1610156104c9576000600160008660ff1660ff16815260200190815260200160002060000160008360ff1660ff16815260200190815260200160002060000160149054906101000a900460ff1660ff16146104b657600160008560ff1660ff16815260200190815260200160002060000160008260ff1660ff16815260200190815260200160002060000160149054906101000a900460ff16828260ff16815181106104a1576104a0610f72565b5b602002602001019060ff16908160ff16815250505b80806104c190610fd0565b9150506103ed565b5080915050919050565b60008060009054906101000a900473ffffffffffffffffffffffffffffffffffffffff16905090565b61050461093f565b73ffffffffffffffffffffffffffffffffffffffff166105226104d3565b73ffffffffffffffffffffffffffffffffffffffff1614610578576040517f08c379a000000000000000000000000000000000000000000000000000000000815260040161056f90610f23565b60405180910390fd5b600073ffffffffffffffffffffffffffffffffffffffff168173ffffffffffffffffffffffffffffffffffffffff16036105e7576040517f08c379a00000000000000000000000000000000000000000000000000000000081526004016105de9061106b565b60405180910390fd5b6105f081610947565b50565b60606000601467ffffffffffffffff81111561061257610611610f43565b5b60405190808252806020026020018201604052801561064557816020015b60608152602001906001900390816106305790505b50905060005b60148160ff1610156107de576000600c67ffffffffffffffff81111561067457610673610f43565b5b6040519080825280602002602001820160405280156106a25781602001602082028036833780820191505090505b5090506000600190505b600c8160ff161015610788576000600160008560ff1660ff16815260200190815260200160002060000160008360ff1660ff16815260200190815260200160002060000160149054906101000a900460ff1660ff161461077557600160008460ff1660ff16815260200190815260200160002060000160008260ff1660ff16815260200190815260200160002060000160149054906101000a900460ff16828260ff16815181106107605761075f610f72565b5b602002602001019060ff16908160ff16815250505b808061078090610fd0565b9150506106ac565b508060405160200161079a919061111b565b604051602081830303815290604052838360ff16815181106107bf576107be610f72565b5b60200260200101819052505080806107d690610fd0565b91505061064b565b508091505090565b6000600160008360ff1660ff16815260200190815260200160002060000160008460ff1660ff16815260200190815260200160002060000160149054906101000a900460ff1660ff161461086f576040517f08c379a0000000000000000000000000000000000000000000000000000000008152600401610866906111a4565b60405180910390fd5b60405180604001604052803373ffffffffffffffffffffffffffffffffffffffff1681526020018360ff16815250600160008360ff1660ff16815260200190815260200160002060000160008460ff1660ff16815260200190815260200160002060008201518160000160006101000a81548173ffffffffffffffffffffffffffffffffffffffff021916908373ffffffffffffffffffffffffffffffffffffffff16021790555060208201518160000160146101000a81548160ff021916908360ff1602179055509050505050565b600033905090565b60008060009054906101000a900473ffffffffffffffffffffffffffffffffffffffff169050816000806101000a81548173ffffffffffffffffffffffffffffffffffffffff021916908373ffffffffffffffffffffffffffffffffffffffff1602179055508173ffffffffffffffffffffffffffffffffffffffff168173ffffffffffffffffffffffffffffffffffffffff167f8be0079c531659141344cd1fd0a4f28419497f9722a3daafe3b4186f6b6457e060405160405180910390a35050565b600080fd5b600060ff82169050919050565b610a2681610a10565b8114610a3157600080fd5b50565b600081359050610a4381610a1d565b92915050565b60008060408385031215610a6057610a5f610a0b565b5b6000610a6e85828601610a34565b9250506020610a7f85828601610a34565b9150509250929050565b600060208284031215610a9f57610a9e610a0b565b5b6000610aad84828501610a34565b91505092915050565b600081519050919050565b600082825260208201905092915050565b6000819050602082019050919050565b610aeb81610a10565b82525050565b6000610afd8383610ae2565b60208301905092915050565b6000602082019050919050565b6000610b2182610ab6565b610b2b8185610ac1565b9350610b3683610ad2565b8060005b83811015610b67578151610b4e8882610af1565b9750610b5983610b09565b925050600181019050610b3a565b5085935050505092915050565b60006020820190508181036000830152610b8e8184610b16565b905092915050565b600073ffffffffffffffffffffffffffffffffffffffff82169050919050565b6000610bc182610b96565b9050919050565b610bd181610bb6565b82525050565b6000602082019050610bec6000830184610bc8565b92915050565b610bfb81610bb6565b8114610c0657600080fd5b50565b600081359050610c1881610bf2565b92915050565b600060208284031215610c3457610c33610a0b565b5b6000610c4284828501610c09565b91505092915050565b600081519050919050565b600082825260208201905092915050565b6000819050602082019050919050565b600081519050919050565b600082825260208201905092915050565b60005b83811015610cb1578082015181840152602081019050610c96565b83811115610cc0576000848401525b50505050565b6000601f19601f8301169050919050565b6000610ce282610c77565b610cec8185610c82565b9350610cfc818560208601610c93565b610d0581610cc6565b840191505092915050565b6000610d1c8383610cd7565b905092915050565b6000602082019050919050565b6000610d3c82610c4b565b610d468185610c56565b935083602082028501610d5885610c67565b8060005b85811015610d945784840389528151610d758582610d10565b9450610d8083610d24565b925060208a01995050600181019050610d5c565b50829750879550505050505092915050565b60006020820190508181036000830152610dc08184610d31565b905092915050565b600082825260208201905092915050565b7f4e6f207265736572766174696f6e20617420746869732074696d650000000000600082015250565b6000610e0f601b83610dc8565b9150610e1a82610dd9565b602082019050919050565b60006020820190508181036000830152610e3e81610e02565b9050919050565b7f596f752063616e206f6e6c792063616e63656c20796f7572206f776e2072657360008201527f6572766174696f6e000000000000000000000000000000000000000000000000602082015250565b6000610ea1602883610dc8565b9150610eac82610e45565b604082019050919050565b60006020820190508181036000830152610ed081610e94565b9050919050565b7f4f776e61626c653a2063616c6c6572206973206e6f7420746865206f776e6572600082015250565b6000610f0d602083610dc8565b9150610f1882610ed7565b602082019050919050565b60006020820190508181036000830152610f3c81610f00565b9050919050565b7f4e487b7100000000000000000000000000000000000000000000000000000000600052604160045260246000fd5b7f4e487b7100000000000000000000000000000000000000000000000000000000600052603260045260246000fd5b7f4e487b7100000000000000000000000000000000000000000000000000000000600052601160045260246000fd5b6000610fdb82610a10565b915060ff8203610fee57610fed610fa1565b5b600182019050919050565b7f4f776e61626c653a206e6577206f776e657220697320746865207a65726f206160008201527f6464726573730000000000000000000000000000000000000000000000000000602082015250565b6000611055602683610dc8565b915061106082610ff9565b604082019050919050565b6000602082019050818103600083015261108481611048565b9050919050565b600081905092915050565b61109f81610a10565b82525050565b60006110b18383611096565b60208301905092915050565b60006110c882610ab6565b6110d2818561108b565b93506110dd83610ad2565b8060005b8381101561110e5781516110f588826110a5565b975061110083610b09565b9250506001810190506110e1565b5085935050505092915050565b600061112782846110bd565b915081905092915050565b7f526f6f6d206973206e6f7420617661696c61626c65206174207468617420746960008201527f6d65000000000000000000000000000000000000000000000000000000000000602082015250565b600061118e602283610dc8565b915061119982611132565b604082019050919050565b600060208201905081810360008301526111bd81611181565b905091905056fea2646970667358221220127a8b4a6cce68b7c9244eaf2df58f63c8605890235550c61f25ea2d7cb2bb7464736f6c634300080d0033",
  "immutableReferences": {},
  "source": "// SPDX-License-Identifier: MIT\npragma solidity 0.8.13;\n\nimport \"./utils/Ownable.sol\";\n\ncontract RoomBooking is Ownable {\n  \n  struct Room {\n    address bookerAddress;\n    uint8 reservationTime;\n  }\n\n  struct Reservation {\n    mapping(uint8 => Room) reservedSlots;\n  }\n\n  mapping(uint8 => Reservation) private reservations;\n\n  // USER MANAGEMENT\n\n\n  // ROOM BOOKING\n  function createBooking(uint8 reservationTime, uint8 roomId) public {\n    require(reservations[roomId].reservedSlots[reservationTime].reservationTime == 0, \"Room is not available at that time\");\n    reservations[roomId].reservedSlots[reservationTime] = Room({\n      bookerAddress: msg.sender,\n      reservationTime: reservationTime\n    });\n  }\n\n  function removeBooking(uint8 time, uint8 roomId) public {\n    require(reservations[roomId].reservedSlots[time].reservationTime != 0, \"No reservation at this time\");\n    require(reservations[roomId].reservedSlots[time].bookerAddress == msg.sender, \"You can only cancel your own reservation\");\n\n    delete reservations[roomId].reservedSlots[time];\n  }\n\n  function getReservation(uint8 roomId) external view returns (uint8[] memory) {\n    uint8[] memory reservedSlot = new uint8[](12);\n    for (uint8 i = 1; i < 12; i++) {\n      if (reservations[roomId].reservedSlots[i].reservationTime != 0) {\n        reservedSlot[i] = reservations[roomId].reservedSlots[i].reservationTime;\n      }\n    }\n    return reservedSlot;\n  }\n\n  function getAllReservations() external view returns (string[] memory) {\n      string[] memory allReservations = new string[](20);\n      for (uint8 i = 0; i < 20; i++) {\n      uint8[] memory bookedRooms = new uint8[](12);\n      for (uint8 k = 1; k < 12; k++) {\n        if (reservations[i].reservedSlots[k].reservationTime != 0) {\n          bookedRooms[k] = reservations[i].reservedSlots[k].reservationTime;\n        }\n      }\n      allReservations[i] = string(abi.encodePacked(bookedRooms));\n    }\n    return allReservations;\n  }\n}",
  "sourcePath": "/Users/ming/code/cola-room-booking/contracts/RoomBooking.sol",
  "compiler": {
    "name": "solc",
    "version": "0.8.13+commit.abaa5c0e.Emscripten.clang"
  },
  "schemaVersion": "3.4.6",
  "updatedAt": "2022-03-30T17:02:46.086Z",
  "networkType": "ethereum",
  "devdoc": {
    "kind": "dev",
    "methods": {
      "owner()": {
        "details": "Returns the address of the current owner."
      },
      "renounceOwnership()": {
        "details": "Leaves the contract without owner. It will not be possible to call `onlyOwner` functions anymore. Can only be called by the current owner. NOTE: Renouncing ownership will leave the contract without an owner, thereby removing any functionality that is only available to the owner."
      },
      "transferOwnership(address)": {
        "details": "Transfers ownership of the contract to a new account (`newOwner`). Can only be called by the current owner."
      }
    },
    "version": 1
  },
  "userdoc": {
    "kind": "user",
    "methods": {},
    "version": 1
  }
}