{
  "contractName": "RoomBooking",
  "abi": [
    {
      "inputs": [],
      "stateMutability": "nonpayable",
      "type": "constructor"
    },
    {
      "anonymous": false,
      "inputs": [
        {
          "indexed": true,
          "internalType": "address",
          "name": "previousOwner",
          "type": "address"
        },
        {
          "indexed": true,
          "internalType": "address",
          "name": "newOwner",
          "type": "address"
        }
      ],
      "name": "OwnershipTransferred",
      "type": "event"
    },
    {
      "anonymous": false,
      "inputs": [
        {
          "indexed": true,
          "internalType": "bytes32",
          "name": "role",
          "type": "bytes32"
        },
        {
          "indexed": true,
          "internalType": "bytes32",
          "name": "previousAdminRole",
          "type": "bytes32"
        },
        {
          "indexed": true,
          "internalType": "bytes32",
          "name": "newAdminRole",
          "type": "bytes32"
        }
      ],
      "name": "RoleAdminChanged",
      "type": "event"
    },
    {
      "anonymous": false,
      "inputs": [
        {
          "indexed": true,
          "internalType": "bytes32",
          "name": "role",
          "type": "bytes32"
        },
        {
          "indexed": true,
          "internalType": "address",
          "name": "account",
          "type": "address"
        },
        {
          "indexed": true,
          "internalType": "address",
          "name": "sender",
          "type": "address"
        }
      ],
      "name": "RoleGranted",
      "type": "event"
    },
    {
      "anonymous": false,
      "inputs": [
        {
          "indexed": true,
          "internalType": "bytes32",
          "name": "role",
          "type": "bytes32"
        },
        {
          "indexed": true,
          "internalType": "address",
          "name": "account",
          "type": "address"
        },
        {
          "indexed": true,
          "internalType": "address",
          "name": "sender",
          "type": "address"
        }
      ],
      "name": "RoleRevoked",
      "type": "event"
    },
    {
      "inputs": [],
      "name": "ADMIN_ROLE",
      "outputs": [
        {
          "internalType": "bytes32",
          "name": "",
          "type": "bytes32"
        }
      ],
      "stateMutability": "view",
      "type": "function",
      "constant": true
    },
    {
      "inputs": [],
      "name": "BOOKER_ROLE",
      "outputs": [
        {
          "internalType": "bytes32",
          "name": "",
          "type": "bytes32"
        }
      ],
      "stateMutability": "view",
      "type": "function",
      "constant": true
    },
    {
      "inputs": [],
      "name": "DEFAULT_ADMIN_ROLE",
      "outputs": [
        {
          "internalType": "bytes32",
          "name": "",
          "type": "bytes32"
        }
      ],
      "stateMutability": "view",
      "type": "function",
      "constant": true
    },
    {
      "inputs": [
        {
          "internalType": "bytes32",
          "name": "role",
          "type": "bytes32"
        }
      ],
      "name": "getRoleAdmin",
      "outputs": [
        {
          "internalType": "bytes32",
          "name": "",
          "type": "bytes32"
        }
      ],
      "stateMutability": "view",
      "type": "function",
      "constant": true
    },
    {
      "inputs": [
        {
          "internalType": "bytes32",
          "name": "role",
          "type": "bytes32"
        },
        {
          "internalType": "address",
          "name": "account",
          "type": "address"
        }
      ],
      "name": "grantRole",
      "outputs": [],
      "stateMutability": "nonpayable",
      "type": "function"
    },
    {
      "inputs": [
        {
          "internalType": "bytes32",
          "name": "role",
          "type": "bytes32"
        },
        {
          "internalType": "address",
          "name": "account",
          "type": "address"
        }
      ],
      "name": "hasRole",
      "outputs": [
        {
          "internalType": "bool",
          "name": "",
          "type": "bool"
        }
      ],
      "stateMutability": "view",
      "type": "function",
      "constant": true
    },
    {
      "inputs": [],
      "name": "owner",
      "outputs": [
        {
          "internalType": "address",
          "name": "",
          "type": "address"
        }
      ],
      "stateMutability": "view",
      "type": "function",
      "constant": true
    },
    {
      "inputs": [],
      "name": "renounceOwnership",
      "outputs": [],
      "stateMutability": "nonpayable",
      "type": "function"
    },
    {
      "inputs": [
        {
          "internalType": "bytes32",
          "name": "role",
          "type": "bytes32"
        },
        {
          "internalType": "address",
          "name": "account",
          "type": "address"
        }
      ],
      "name": "renounceRole",
      "outputs": [],
      "stateMutability": "nonpayable",
      "type": "function"
    },
    {
      "inputs": [
        {
          "internalType": "bytes32",
          "name": "role",
          "type": "bytes32"
        },
        {
          "internalType": "address",
          "name": "account",
          "type": "address"
        }
      ],
      "name": "revokeRole",
      "outputs": [],
      "stateMutability": "nonpayable",
      "type": "function"
    },
    {
      "inputs": [
        {
          "internalType": "bytes4",
          "name": "interfaceId",
          "type": "bytes4"
        }
      ],
      "name": "supportsInterface",
      "outputs": [
        {
          "internalType": "bool",
          "name": "",
          "type": "bool"
        }
      ],
      "stateMutability": "view",
      "type": "function",
      "constant": true
    },
    {
      "inputs": [
        {
          "internalType": "address",
          "name": "newOwner",
          "type": "address"
        }
      ],
      "name": "transferOwnership",
      "outputs": [],
      "stateMutability": "nonpayable",
      "type": "function"
    },
    {
      "inputs": [
        {
          "internalType": "address",
          "name": "userAddress",
          "type": "address"
        }
      ],
      "name": "addAdmin",
      "outputs": [],
      "stateMutability": "nonpayable",
      "type": "function"
    },
    {
      "inputs": [
        {
          "internalType": "address",
          "name": "userAddress",
          "type": "address"
        }
      ],
      "name": "removeAdmin",
      "outputs": [],
      "stateMutability": "nonpayable",
      "type": "function"
    },
    {
      "inputs": [
        {
          "internalType": "address",
          "name": "userAddress",
          "type": "address"
        }
      ],
      "name": "addBooker",
      "outputs": [],
      "stateMutability": "nonpayable",
      "type": "function"
    },
    {
      "inputs": [
        {
          "internalType": "address",
          "name": "userAddress",
          "type": "address"
        }
      ],
      "name": "removeBooker",
      "outputs": [],
      "stateMutability": "nonpayable",
      "type": "function"
    },
    {
      "inputs": [
        {
          "internalType": "address",
          "name": "account",
          "type": "address"
        }
      ],
      "name": "isAdmin",
      "outputs": [
        {
          "internalType": "bool",
          "name": "",
          "type": "bool"
        }
      ],
      "stateMutability": "view",
      "type": "function",
      "constant": true
    },
    {
      "inputs": [
        {
          "internalType": "address",
          "name": "account",
          "type": "address"
        }
      ],
      "name": "isBooker",
      "outputs": [
        {
          "internalType": "bool",
          "name": "",
          "type": "bool"
        }
      ],
      "stateMutability": "view",
      "type": "function",
      "constant": true
    },
    {
      "inputs": [
        {
          "internalType": "uint8",
          "name": "roomId",
          "type": "uint8"
        },
        {
          "internalType": "uint8",
          "name": "reservationTime",
          "type": "uint8"
        }
      ],
      "name": "createReservation",
      "outputs": [],
      "stateMutability": "nonpayable",
      "type": "function"
    },
    {
      "inputs": [
        {
          "internalType": "uint8",
          "name": "roomId",
          "type": "uint8"
        },
        {
          "internalType": "uint8",
          "name": "reservationTime",
          "type": "uint8"
        }
      ],
      "name": "removeReservation",
      "outputs": [],
      "stateMutability": "nonpayable",
      "type": "function"
    },
    {
      "inputs": [
        {
          "internalType": "uint8",
          "name": "roomId",
          "type": "uint8"
        }
      ],
      "name": "getRoomReservation",
      "outputs": [
        {
          "internalType": "uint8[]",
          "name": "",
          "type": "uint8[]"
        }
      ],
      "stateMutability": "view",
      "type": "function",
      "constant": true
    },
    {
      "inputs": [
        {
          "internalType": "address",
          "name": "userAddress",
          "type": "address"
        }
      ],
      "name": "getUserReservations",
      "outputs": [
        {
          "components": [
            {
              "internalType": "address",
              "name": "bookerAddress",
              "type": "address"
            },
            {
              "internalType": "uint8",
              "name": "roomId",
              "type": "uint8"
            },
            {
              "internalType": "uint8",
              "name": "reservationTime",
              "type": "uint8"
            }
          ],
          "internalType": "struct RoomBooking.ReservedRoom[]",
          "name": "",
          "type": "tuple[]"
        }
      ],
      "stateMutability": "view",
      "type": "function",
      "constant": true
    },
    {
      "inputs": [
        {
          "internalType": "uint8",
          "name": "roomId",
          "type": "uint8"
        },
        {
          "internalType": "uint8",
          "name": "reservationTime",
          "type": "uint8"
        }
      ],
      "name": "getReservationDetails",
      "outputs": [
        {
          "components": [
            {
              "internalType": "address",
              "name": "bookerAddress",
              "type": "address"
            },
            {
              "internalType": "uint8",
              "name": "roomId",
              "type": "uint8"
            },
            {
              "internalType": "uint8",
              "name": "reservationTime",
              "type": "uint8"
            }
          ],
          "internalType": "struct RoomBooking.ReservedRoom",
          "name": "",
          "type": "tuple"
        }
      ],
      "stateMutability": "view",
      "type": "function",
      "constant": true
    }
  ],
  "bytecode": "0x60806040523480156200001157600080fd5b506200003262000026620000ee60201b60201c565b620000f660201b60201c565b620000647fa49807205ce4d355092ef5a8a18f56e8913cf4a201fbe287825b095693c2177533620001bc60201b60201c565b620000967f53b4a85069ab6bb594309a96f561a4f91f03327c3846a1547845c47d8386d7b033620001bc60201b60201c565b620000e87f53b4a85069ab6bb594309a96f561a4f91f03327c3846a1547845c47d8386d7b07fa49807205ce4d355092ef5a8a18f56e8913cf4a201fbe287825b095693c21775620001d260201b60201c565b620003af565b600033905090565b6000600160009054906101000a900473ffffffffffffffffffffffffffffffffffffffff16905081600160006101000a81548173ffffffffffffffffffffffffffffffffffffffff021916908373ffffffffffffffffffffffffffffffffffffffff1602179055508173ffffffffffffffffffffffffffffffffffffffff168173ffffffffffffffffffffffffffffffffffffffff167f8be0079c531659141344cd1fd0a4f28419497f9722a3daafe3b4186f6b6457e060405160405180910390a35050565b620001ce82826200023560201b60201c565b5050565b6000620001e5836200032660201b60201c565b905081600080858152602001908152602001600020600101819055508181847fbd79b86ffe0ab8e8776151514217cd7cacd52c909f66475c3af44e129f0b00ff60405160405180910390a4505050565b6200024782826200034560201b60201c565b6200032257600160008084815260200190815260200160002060000160008373ffffffffffffffffffffffffffffffffffffffff1673ffffffffffffffffffffffffffffffffffffffff16815260200190815260200160002060006101000a81548160ff021916908315150217905550620002c7620000ee60201b60201c565b73ffffffffffffffffffffffffffffffffffffffff168173ffffffffffffffffffffffffffffffffffffffff16837f2f8788117e7eff1d82e926ec794901d17c78024a50270940304540a733656f0d60405160405180910390a45b5050565b6000806000838152602001908152602001600020600101549050919050565b600080600084815260200190815260200160002060000160008373ffffffffffffffffffffffffffffffffffffffff1673ffffffffffffffffffffffffffffffffffffffff16815260200190815260200160002060009054906101000a900460ff16905092915050565b612bea80620003bf6000396000f3fe608060405234801561001057600080fd5b506004361061014d5760003560e01c8063710f95c1116100c357806391d148541161007c57806391d14854146103ae578063a217fddf146103de578063d547741f146103fc578063f2fde38b14610418578063f3922ce414610434578063f6e249ca146104505761014d565b8063710f95c1146102ea578063715018a61461031a57806375b238fc14610324578063793087bd14610342578063862490ac146103725780638da5cb5b146103905761014d565b806324d7806c1161011557806324d7806c1461021a5780632f2ff15d1461024a57806331d601c81461026657806336568abe146102825780634cc3eae91461029e57806370480275146102ce5761014d565b806301ffc9a714610152578063062db1e31461018257806311068a5e146101b25780631785f53c146101ce578063248a9ca3146101ea575b600080fd5b61016c60048036038101906101679190611e59565b61046c565b6040516101799190611ea1565b60405180910390f35b61019c60048036038101906101979190611f1a565b6104e6565b6040516101a99190611ea1565b60405180910390f35b6101cc60048036038101906101c79190611f1a565b610519565b005b6101e860048036038101906101e39190611f1a565b6105af565b005b61020460048036038101906101ff9190611f7d565b610658565b6040516102119190611fb9565b60405180910390f35b610234600480360381019061022f9190611f1a565b610677565b6040516102419190611ea1565b60405180910390f35b610264600480360381019061025f9190611fd4565b6106aa565b005b610280600480360381019061027b919061204d565b6106d3565b005b61029c60048036038101906102979190611fd4565b610a16565b005b6102b860048036038101906102b3919061204d565b610a99565b6040516102c591906120ed565b60405180910390f35b6102e860048036038101906102e39190611f1a565b610be0565b005b61030460048036038101906102ff9190612108565b610c89565b60405161031191906121e4565b60405180910390f35b610322610dc6565b005b61032c610e4e565b6040516103399190611fb9565b60405180910390f35b61035c60048036038101906103579190611f1a565b610e72565b60405161036991906122f7565b60405180910390f35b61037a610f9c565b6040516103879190611fb9565b60405180910390f35b610398610fc0565b6040516103a59190612328565b60405180910390f35b6103c860048036038101906103c39190611fd4565b610fea565b6040516103d59190611ea1565b60405180910390f35b6103e6611054565b6040516103f39190611fb9565b60405180910390f35b61041660048036038101906104119190611fd4565b61105b565b005b610432600480360381019061042d9190611f1a565b611084565b005b61044e60048036038101906104499190611f1a565b61117b565b005b61046a6004803603810190610465919061204d565b611211565b005b60007f7965db0b000000000000000000000000000000000000000000000000000000007bffffffffffffffffffffffffffffffffffffffffffffffffffffffff1916827bffffffffffffffffffffffffffffffffffffffffffffffffffffffff191614806104df57506104de826114f3565b5b9050919050565b60006105127f53b4a85069ab6bb594309a96f561a4f91f03327c3846a1547845c47d8386d7b083610fea565b9050919050565b6105437fa49807205ce4d355092ef5a8a18f56e8913cf4a201fbe287825b095693c2177533610fea565b610582576040517f08c379a0000000000000000000000000000000000000000000000000000000008152600401610579906123a0565b60405180910390fd5b6105ac7f53b4a85069ab6bb594309a96f561a4f91f03327c3846a1547845c47d8386d7b08261155d565b50565b6105b761163e565b73ffffffffffffffffffffffffffffffffffffffff166105d5610fc0565b73ffffffffffffffffffffffffffffffffffffffff161461062b576040517f08c379a00000000000000000000000000000000000000000000000000000000081526004016106229061240c565b60405180910390fd5b6106557fa49807205ce4d355092ef5a8a18f56e8913cf4a201fbe287825b095693c2177582611646565b50565b6000806000838152602001908152602001600020600101549050919050565b60006106a37fa49807205ce4d355092ef5a8a18f56e8913cf4a201fbe287825b095693c2177583610fea565b9050919050565b6106b382610658565b6106c4816106bf61163e565b611726565b6106ce8383611646565b505050565b6000600260008460ff1660ff16815260200190815260200160002060000160008360ff1660ff16815260200190815260200160002060000160159054906101000a900460ff1660ff160361075c576040517f08c379a000000000000000000000000000000000000000000000000000000000815260040161075390612478565b60405180910390fd5b3373ffffffffffffffffffffffffffffffffffffffff16600260008460ff1660ff16815260200190815260200160002060000160008360ff1660ff16815260200190815260200160002060000160009054906101000a900473ffffffffffffffffffffffffffffffffffffffff1673ffffffffffffffffffffffffffffffffffffffff1614610820576040517f08c379a00000000000000000000000000000000000000000000000000000000081526004016108179061250a565b60405180910390fd5b600260008360ff1660ff16815260200190815260200160002060000160008260ff1660ff168152602001908152602001600020600080820160006101000a81549073ffffffffffffffffffffffffffffffffffffffff02191690556000820160146101000a81549060ff02191690556000820160156101000a81549060ff0219169055505060005b600360003373ffffffffffffffffffffffffffffffffffffffff1673ffffffffffffffffffffffffffffffffffffffff168152602001908152602001600020805490508160ff161015610a11578260ff16600360003373ffffffffffffffffffffffffffffffffffffffff1673ffffffffffffffffffffffffffffffffffffffff1681526020019081526020016000208260ff168154811061094d5761094c61252a565b5b9060005260206000200160000160149054906101000a900460ff1660ff161480156109eb57508160ff16600360003373ffffffffffffffffffffffffffffffffffffffff1673ffffffffffffffffffffffffffffffffffffffff1681526020019081526020016000208260ff16815481106109cb576109ca61252a565b5b9060005260206000200160000160159054906101000a900460ff1660ff16145b156109fe576109fd338260ff166117c3565b5b8080610a0990612588565b9150506108a8565b505050565b610a1e61163e565b73ffffffffffffffffffffffffffffffffffffffff168173ffffffffffffffffffffffffffffffffffffffff1614610a8b576040517f08c379a0000000000000000000000000000000000000000000000000000000008152600401610a8290612623565b60405180910390fd5b610a95828261155d565b5050565b610aa1611dbf565b610acb7fa49807205ce4d355092ef5a8a18f56e8913cf4a201fbe287825b095693c2177533610fea565b610b0a576040517f08c379a0000000000000000000000000000000000000000000000000000000008152600401610b01906123a0565b60405180910390fd5b600260008460ff1660ff16815260200190815260200160002060000160008360ff1660ff1681526020019081526020016000206040518060600160405290816000820160009054906101000a900473ffffffffffffffffffffffffffffffffffffffff1673ffffffffffffffffffffffffffffffffffffffff1673ffffffffffffffffffffffffffffffffffffffff1681526020016000820160149054906101000a900460ff1660ff1660ff1681526020016000820160159054906101000a900460ff1660ff1660ff1681525050905092915050565b610be861163e565b73ffffffffffffffffffffffffffffffffffffffff16610c06610fc0565b73ffffffffffffffffffffffffffffffffffffffff1614610c5c576040517f08c379a0000000000000000000000000000000000000000000000000000000008152600401610c539061240c565b60405180910390fd5b610c867fa49807205ce4d355092ef5a8a18f56e8913cf4a201fbe287825b095693c2177582611646565b50565b60606000600c67ffffffffffffffff811115610ca857610ca7612643565b5b604051908082528060200260200182016040528015610cd65781602001602082028036833780820191505090505b5090506000600190505b600c8160ff161015610dbc576000600260008660ff1660ff16815260200190815260200160002060000160008360ff1660ff16815260200190815260200160002060000160159054906101000a900460ff1660ff1614610da957600260008560ff1660ff16815260200190815260200160002060000160008260ff1660ff16815260200190815260200160002060000160159054906101000a900460ff16828260ff1681518110610d9457610d9361252a565b5b602002602001019060ff16908160ff16815250505b8080610db490612588565b915050610ce0565b5080915050919050565b610dce61163e565b73ffffffffffffffffffffffffffffffffffffffff16610dec610fc0565b73ffffffffffffffffffffffffffffffffffffffff1614610e42576040517f08c379a0000000000000000000000000000000000000000000000000000000008152600401610e399061240c565b60405180910390fd5b610e4c6000611abd565b565b7fa49807205ce4d355092ef5a8a18f56e8913cf4a201fbe287825b095693c2177581565b6060600360008373ffffffffffffffffffffffffffffffffffffffff1673ffffffffffffffffffffffffffffffffffffffff168152602001908152602001600020805480602002602001604051908101604052809291908181526020016000905b82821015610f91578382906000526020600020016040518060600160405290816000820160009054906101000a900473ffffffffffffffffffffffffffffffffffffffff1673ffffffffffffffffffffffffffffffffffffffff1673ffffffffffffffffffffffffffffffffffffffff1681526020016000820160149054906101000a900460ff1660ff1660ff1681526020016000820160159054906101000a900460ff1660ff1660ff168152505081526020019060010190610ed3565b505050509050919050565b7f53b4a85069ab6bb594309a96f561a4f91f03327c3846a1547845c47d8386d7b081565b6000600160009054906101000a900473ffffffffffffffffffffffffffffffffffffffff16905090565b600080600084815260200190815260200160002060000160008373ffffffffffffffffffffffffffffffffffffffff1673ffffffffffffffffffffffffffffffffffffffff16815260200190815260200160002060009054906101000a900460ff16905092915050565b6000801b81565b61106482610658565b6110758161107061163e565b611726565b61107f838361155d565b505050565b61108c61163e565b73ffffffffffffffffffffffffffffffffffffffff166110aa610fc0565b73ffffffffffffffffffffffffffffffffffffffff1614611100576040517f08c379a00000000000000000000000000000000000000000000000000000000081526004016110f79061240c565b60405180910390fd5b600073ffffffffffffffffffffffffffffffffffffffff168173ffffffffffffffffffffffffffffffffffffffff160361116f576040517f08c379a0000000000000000000000000000000000000000000000000000000008152600401611166906126e4565b60405180910390fd5b61117881611abd565b50565b6111a57fa49807205ce4d355092ef5a8a18f56e8913cf4a201fbe287825b095693c2177533610fea565b6111e4576040517f08c379a00000000000000000000000000000000000000000000000000000000081526004016111db906123a0565b60405180910390fd5b61120e7f53b4a85069ab6bb594309a96f561a4f91f03327c3846a1547845c47d8386d7b082611646565b50565b61123b7f53b4a85069ab6bb594309a96f561a4f91f03327c3846a1547845c47d8386d7b033610fea565b61127a576040517f08c379a000000000000000000000000000000000000000000000000000000000815260040161127190612750565b60405180910390fd5b6000600260008460ff1660ff16815260200190815260200160002060000160008360ff1660ff16815260200190815260200160002060000160159054906101000a900460ff1660ff1614611303576040517f08c379a00000000000000000000000000000000000000000000000000000000081526004016112fa906127e2565b60405180910390fd5b600060405180606001604052803373ffffffffffffffffffffffffffffffffffffffff1681526020018460ff1681526020018360ff16815250905080600260008560ff1660ff16815260200190815260200160002060000160008460ff1660ff16815260200190815260200160002060008201518160000160006101000a81548173ffffffffffffffffffffffffffffffffffffffff021916908373ffffffffffffffffffffffffffffffffffffffff16021790555060208201518160000160146101000a81548160ff021916908360ff16021790555060408201518160000160156101000a81548160ff021916908360ff160217905550905050600360003373ffffffffffffffffffffffffffffffffffffffff1673ffffffffffffffffffffffffffffffffffffffff168152602001908152602001600020819080600181540180825580915050600190039060005260206000200160009091909190915060008201518160000160006101000a81548173ffffffffffffffffffffffffffffffffffffffff021916908373ffffffffffffffffffffffffffffffffffffffff16021790555060208201518160000160146101000a81548160ff021916908360ff16021790555060408201518160000160156101000a81548160ff021916908360ff1602179055505050505050565b60007f01ffc9a7000000000000000000000000000000000000000000000000000000007bffffffffffffffffffffffffffffffffffffffffffffffffffffffff1916827bffffffffffffffffffffffffffffffffffffffffffffffffffffffff1916149050919050565b6115678282610fea565b1561163a57600080600084815260200190815260200160002060000160008373ffffffffffffffffffffffffffffffffffffffff1673ffffffffffffffffffffffffffffffffffffffff16815260200190815260200160002060006101000a81548160ff0219169083151502179055506115df61163e565b73ffffffffffffffffffffffffffffffffffffffff168173ffffffffffffffffffffffffffffffffffffffff16837ff6391f5c32d9c69d2a47ea670b442974b53935d1edc7fd64eb21e047a839171b60405160405180910390a45b5050565b600033905090565b6116508282610fea565b61172257600160008084815260200190815260200160002060000160008373ffffffffffffffffffffffffffffffffffffffff1673ffffffffffffffffffffffffffffffffffffffff16815260200190815260200160002060006101000a81548160ff0219169083151502179055506116c761163e565b73ffffffffffffffffffffffffffffffffffffffff168173ffffffffffffffffffffffffffffffffffffffff16837f2f8788117e7eff1d82e926ec794901d17c78024a50270940304540a733656f0d60405160405180910390a45b5050565b6117308282610fea565b6117bf576117558173ffffffffffffffffffffffffffffffffffffffff166014611b83565b6117638360001c6020611b83565b604051602001611774929190612914565b6040516020818303038152906040526040517f08c379a00000000000000000000000000000000000000000000000000000000081526004016117b69190612998565b60405180910390fd5b5050565b600360008373ffffffffffffffffffffffffffffffffffffffff1673ffffffffffffffffffffffffffffffffffffffff16815260200190815260200160002080549050811015611ab95760008190505b6001600360008573ffffffffffffffffffffffffffffffffffffffff1673ffffffffffffffffffffffffffffffffffffffff1681526020019081526020016000208054905061186291906129c4565b811015611a0457600360008473ffffffffffffffffffffffffffffffffffffffff1673ffffffffffffffffffffffffffffffffffffffff1681526020019081526020016000206001826118b591906129f8565b815481106118c6576118c561252a565b5b90600052602060002001600360008573ffffffffffffffffffffffffffffffffffffffff1673ffffffffffffffffffffffffffffffffffffffff16815260200190815260200160002082815481106119215761192061252a565b5b906000526020600020016000820160009054906101000a900473ffffffffffffffffffffffffffffffffffffffff168160000160006101000a81548173ffffffffffffffffffffffffffffffffffffffff021916908373ffffffffffffffffffffffffffffffffffffffff1602179055506000820160149054906101000a900460ff168160000160146101000a81548160ff021916908360ff1602179055506000820160159054906101000a900460ff168160000160156101000a81548160ff021916908360ff16021790555090505080806119fc90612a4e565b915050611813565b50600360008373ffffffffffffffffffffffffffffffffffffffff1673ffffffffffffffffffffffffffffffffffffffff168152602001908152602001600020805480611a5457611a53612a96565b5b60019003818190600052602060002001600080820160006101000a81549073ffffffffffffffffffffffffffffffffffffffff02191690556000820160146101000a81549060ff02191690556000820160156101000a81549060ff0219169055505090555b5050565b6000600160009054906101000a900473ffffffffffffffffffffffffffffffffffffffff16905081600160006101000a81548173ffffffffffffffffffffffffffffffffffffffff021916908373ffffffffffffffffffffffffffffffffffffffff1602179055508173ffffffffffffffffffffffffffffffffffffffff168173ffffffffffffffffffffffffffffffffffffffff167f8be0079c531659141344cd1fd0a4f28419497f9722a3daafe3b4186f6b6457e060405160405180910390a35050565b606060006002836002611b969190612ac5565b611ba091906129f8565b67ffffffffffffffff811115611bb957611bb8612643565b5b6040519080825280601f01601f191660200182016040528015611beb5781602001600182028036833780820191505090505b5090507f300000000000000000000000000000000000000000000000000000000000000081600081518110611c2357611c2261252a565b5b60200101907effffffffffffffffffffffffffffffffffffffffffffffffffffffffffffff1916908160001a9053507f780000000000000000000000000000000000000000000000000000000000000081600181518110611c8757611c8661252a565b5b60200101907effffffffffffffffffffffffffffffffffffffffffffffffffffffffffffff1916908160001a90535060006001846002611cc79190612ac5565b611cd191906129f8565b90505b6001811115611d71577f3031323334353637383961626364656600000000000000000000000000000000600f861660108110611d1357611d1261252a565b5b1a60f81b828281518110611d2a57611d2961252a565b5b60200101907effffffffffffffffffffffffffffffffffffffffffffffffffffffffffffff1916908160001a905350600485901c945080611d6a90612b1f565b9050611cd4565b5060008414611db5576040517f08c379a0000000000000000000000000000000000000000000000000000000008152600401611dac90612b94565b60405180910390fd5b8091505092915050565b6040518060600160405280600073ffffffffffffffffffffffffffffffffffffffff168152602001600060ff168152602001600060ff1681525090565b600080fd5b60007fffffffff0000000000000000000000000000000000000000000000000000000082169050919050565b611e3681611e01565b8114611e4157600080fd5b50565b600081359050611e5381611e2d565b92915050565b600060208284031215611e6f57611e6e611dfc565b5b6000611e7d84828501611e44565b91505092915050565b60008115159050919050565b611e9b81611e86565b82525050565b6000602082019050611eb66000830184611e92565b92915050565b600073ffffffffffffffffffffffffffffffffffffffff82169050919050565b6000611ee782611ebc565b9050919050565b611ef781611edc565b8114611f0257600080fd5b50565b600081359050611f1481611eee565b92915050565b600060208284031215611f3057611f2f611dfc565b5b6000611f3e84828501611f05565b91505092915050565b6000819050919050565b611f5a81611f47565b8114611f6557600080fd5b50565b600081359050611f7781611f51565b92915050565b600060208284031215611f9357611f92611dfc565b5b6000611fa184828501611f68565b91505092915050565b611fb381611f47565b82525050565b6000602082019050611fce6000830184611faa565b92915050565b60008060408385031215611feb57611fea611dfc565b5b6000611ff985828601611f68565b925050602061200a85828601611f05565b9150509250929050565b600060ff82169050919050565b61202a81612014565b811461203557600080fd5b50565b60008135905061204781612021565b92915050565b6000806040838503121561206457612063611dfc565b5b600061207285828601612038565b925050602061208385828601612038565b9150509250929050565b61209681611edc565b82525050565b6120a581612014565b82525050565b6060820160008201516120c1600085018261208d565b5060208201516120d4602085018261209c565b5060408201516120e7604085018261209c565b50505050565b600060608201905061210260008301846120ab565b92915050565b60006020828403121561211e5761211d611dfc565b5b600061212c84828501612038565b91505092915050565b600081519050919050565b600082825260208201905092915050565b6000819050602082019050919050565b600061216d838361209c565b60208301905092915050565b6000602082019050919050565b600061219182612135565b61219b8185612140565b93506121a683612151565b8060005b838110156121d75781516121be8882612161565b97506121c983612179565b9250506001810190506121aa565b5085935050505092915050565b600060208201905081810360008301526121fe8184612186565b905092915050565b600081519050919050565b600082825260208201905092915050565b6000819050602082019050919050565b606082016000820151612248600085018261208d565b50602082015161225b602085018261209c565b50604082015161226e604085018261209c565b50505050565b60006122808383612232565b60608301905092915050565b6000602082019050919050565b60006122a482612206565b6122ae8185612211565b93506122b983612222565b8060005b838110156122ea5781516122d18882612274565b97506122dc8361228c565b9250506001810190506122bd565b5085935050505092915050565b600060208201905081810360008301526123118184612299565b905092915050565b61232281611edc565b82525050565b600060208201905061233d6000830184612319565b92915050565b600082825260208201905092915050565b7f596f75206e65656420746f20626520616e2061646d696e000000000000000000600082015250565b600061238a601783612343565b915061239582612354565b602082019050919050565b600060208201905081810360008301526123b98161237d565b9050919050565b7f4f776e61626c653a2063616c6c6572206973206e6f7420746865206f776e6572600082015250565b60006123f6602083612343565b9150612401826123c0565b602082019050919050565b60006020820190508181036000830152612425816123e9565b9050919050565b7f4e6f207265736572766174696f6e20617420746869732074696d650000000000600082015250565b6000612462601b83612343565b915061246d8261242c565b602082019050919050565b6000602082019050818103600083015261249181612455565b9050919050565b7f596f752063616e206f6e6c792063616e63656c20796f7572206f776e2072657360008201527f6572766174696f6e000000000000000000000000000000000000000000000000602082015250565b60006124f4602883612343565b91506124ff82612498565b604082019050919050565b60006020820190508181036000830152612523816124e7565b9050919050565b7f4e487b7100000000000000000000000000000000000000000000000000000000600052603260045260246000fd5b7f4e487b7100000000000000000000000000000000000000000000000000000000600052601160045260246000fd5b600061259382612014565b915060ff82036125a6576125a5612559565b5b600182019050919050565b7f416363657373436f6e74726f6c3a2063616e206f6e6c792072656e6f756e636560008201527f20726f6c657320666f722073656c660000000000000000000000000000000000602082015250565b600061260d602f83612343565b9150612618826125b1565b604082019050919050565b6000602082019050818103600083015261263c81612600565b9050919050565b7f4e487b7100000000000000000000000000000000000000000000000000000000600052604160045260246000fd5b7f4f776e61626c653a206e6577206f776e657220697320746865207a65726f206160008201527f6464726573730000000000000000000000000000000000000000000000000000602082015250565b60006126ce602683612343565b91506126d982612672565b604082019050919050565b600060208201905081810360008301526126fd816126c1565b9050919050565b7f596f75206e65656420746f2068617665206120626f6f6b657220726f6c650000600082015250565b600061273a601e83612343565b915061274582612704565b602082019050919050565b600060208201905081810360008301526127698161272d565b9050919050565b7f526f6f6d206973206e6f7420617661696c61626c65206174207468617420746960008201527f6d65000000000000000000000000000000000000000000000000000000000000602082015250565b60006127cc602283612343565b91506127d782612770565b604082019050919050565b600060208201905081810360008301526127fb816127bf565b9050919050565b600081905092915050565b7f416363657373436f6e74726f6c3a206163636f756e7420000000000000000000600082015250565b6000612843601783612802565b915061284e8261280d565b601782019050919050565b600081519050919050565b60005b83811015612882578082015181840152602081019050612867565b83811115612891576000848401525b50505050565b60006128a282612859565b6128ac8185612802565b93506128bc818560208601612864565b80840191505092915050565b7f206973206d697373696e6720726f6c6520000000000000000000000000000000600082015250565b60006128fe601183612802565b9150612909826128c8565b601182019050919050565b600061291f82612836565b915061292b8285612897565b9150612936826128f1565b91506129428284612897565b91508190509392505050565b6000601f19601f8301169050919050565b600061296a82612859565b6129748185612343565b9350612984818560208601612864565b61298d8161294e565b840191505092915050565b600060208201905081810360008301526129b2818461295f565b905092915050565b6000819050919050565b60006129cf826129ba565b91506129da836129ba565b9250828210156129ed576129ec612559565b5b828203905092915050565b6000612a03826129ba565b9150612a0e836129ba565b9250827fffffffffffffffffffffffffffffffffffffffffffffffffffffffffffffffff03821115612a4357612a42612559565b5b828201905092915050565b6000612a59826129ba565b91507fffffffffffffffffffffffffffffffffffffffffffffffffffffffffffffffff8203612a8b57612a8a612559565b5b600182019050919050565b7f4e487b7100000000000000000000000000000000000000000000000000000000600052603160045260246000fd5b6000612ad0826129ba565b9150612adb836129ba565b9250817fffffffffffffffffffffffffffffffffffffffffffffffffffffffffffffffff0483118215151615612b1457612b13612559565b5b828202905092915050565b6000612b2a826129ba565b915060008203612b3d57612b3c612559565b5b600182039050919050565b7f537472696e67733a20686578206c656e67746820696e73756666696369656e74600082015250565b6000612b7e602083612343565b9150612b8982612b48565b602082019050919050565b60006020820190508181036000830152612bad81612b71565b905091905056fea26469706673582212206101196c6a550f2fcbe1e4270b0510646ce45e4cff47a84d1adaacaed50e3aa964736f6c634300080d0033",
  "immutableReferences": {},
  "source": "// SPDX-License-Identifier: MIT\npragma solidity 0.8.13;\n\nimport \"./node_modules/@openzeppelin/contracts/access/AccessControl.sol\";\nimport \"./node_modules/@openzeppelin/contracts/access/Ownable.sol\";\n\ncontract RoomBooking is AccessControl, Ownable {\n  bytes32 public constant ADMIN_ROLE = keccak256(\"ADMIN_ROLE\");\n  bytes32 public constant BOOKER_ROLE = keccak256(\"BOOKER_ROLE\");\n\n  struct ReservedRoom {\n    address bookerAddress;\n    uint8 roomId;\n    uint8 reservationTime;\n  }\n\n  struct Reservation {\n    mapping(uint8 => ReservedRoom) reservedSlots;\n  }\n\n  mapping(uint8 => Reservation) private reservations;\n  mapping(address => ReservedRoom[]) private addressBookingMap;\n\n  constructor ()\n  {\n    // Give Owner Admin Role\n    _setupRole(ADMIN_ROLE, msg.sender);\n    _setupRole(BOOKER_ROLE, msg.sender);\n    _setRoleAdmin(BOOKER_ROLE, ADMIN_ROLE);\n  }\n\n  // USER MANAGEMENT\n  function addAdmin(address userAddress)\n    public onlyOwner\n  {\n    _grantRole(ADMIN_ROLE, userAddress);\n  }\n\n  function removeAdmin(address userAddress) \n    public onlyOwner\n  {\n    _grantRole(ADMIN_ROLE, userAddress);\n  }\n\n  function addBooker(address userAddress)\n    public \n  {\n    require(hasRole(ADMIN_ROLE, msg.sender), \"You need to be an admin\");\n    _grantRole(BOOKER_ROLE, userAddress);\n  }\n\n  function removeBooker(address userAddress)\n    public\n  {\n    require(hasRole(ADMIN_ROLE, msg.sender), \"You need to be an admin\");\n    _revokeRole(BOOKER_ROLE, userAddress);\n  }\n\n  function isAdmin(address account)\n    public virtual view returns (bool)\n  {\n    return hasRole(ADMIN_ROLE, account);\n  }\n\n  function isBooker(address account)\n    public virtual view returns (bool)\n  {\n    return hasRole(BOOKER_ROLE, account);\n  }\n\n  // ROOM BOOKING\n  function createReservation(uint8 roomId, uint8 reservationTime) \n    public\n  {\n    require(hasRole(BOOKER_ROLE, msg.sender), \"You need to have a booker role\");\n    require(reservations[roomId].reservedSlots[reservationTime].reservationTime == 0, \"Room is not available at that time\");\n    ReservedRoom memory reservedRoom = ReservedRoom({\n      bookerAddress: msg.sender,\n      roomId: roomId,\n      reservationTime: reservationTime\n    });\n    reservations[roomId].reservedSlots[reservationTime] = reservedRoom;\n    addressBookingMap[msg.sender].push(reservedRoom);\n  }\n\n  function deleteReservationFromUserBookingMap(address userAddress, uint256 index)\n    internal\n  {\n    if (index >= addressBookingMap[userAddress].length) return;\n\n    for (uint i = index; i < addressBookingMap[userAddress].length - 1; i++){\n        addressBookingMap[userAddress][i] = addressBookingMap[userAddress][i + 1];\n    }\n    addressBookingMap[userAddress].pop();\n  }\n\n\n  function removeReservation(uint8 roomId, uint8 reservationTime)\n    public\n  {\n    require(reservations[roomId].reservedSlots[reservationTime].reservationTime != 0, \"No reservation at this time\");\n    require(reservations[roomId].reservedSlots[reservationTime].bookerAddress == msg.sender, \"You can only cancel your own reservation\");\n\n    delete reservations[roomId].reservedSlots[reservationTime];\n    for (uint8 i = 0; i < addressBookingMap[msg.sender].length; i++) {\n      if (addressBookingMap[msg.sender][i].roomId == roomId && addressBookingMap[msg.sender][i].reservationTime == reservationTime) {\n        deleteReservationFromUserBookingMap(msg.sender, i);\n      }\n    }\n  }\n\n  function getRoomReservation(uint8 roomId)\n    external view returns (uint8[] memory)\n  {\n    uint8[] memory reservedSlot = new uint8[](12);\n    for (uint8 i = 1; i < 12; i++) {\n      if (reservations[roomId].reservedSlots[i].reservationTime != 0) {\n        reservedSlot[i] = reservations[roomId].reservedSlots[i].reservationTime;\n      }\n    }\n    return reservedSlot;\n  }\n\n  function getUserReservations(address userAddress)\n    external view returns (ReservedRoom[] memory)\n  {\n    return addressBookingMap[userAddress];\n  }\n\n  function getReservationDetails(uint8 roomId, uint8 reservationTime)\n    external view returns (ReservedRoom memory)\n  {\n    require(hasRole(ADMIN_ROLE, msg.sender), \"You need to be an admin\");\n    return reservations[roomId].reservedSlots[reservationTime];\n  }\n}",
  "sourcePath": "/Users/ming/code/cola-room-booking/contracts/RoomBooking.sol",
  "compiler": {
    "name": "solc",
    "version": "0.8.13+commit.abaa5c0e.Emscripten.clang"
  },
  "schemaVersion": "3.4.6",
  "updatedAt": "2022-04-05T15:14:06.064Z",
  "networkType": "ethereum",
  "devdoc": {
    "kind": "dev",
    "methods": {
      "getRoleAdmin(bytes32)": {
        "details": "Returns the admin role that controls `role`. See {grantRole} and {revokeRole}. To change a role's admin, use {_setRoleAdmin}."
      },
      "grantRole(bytes32,address)": {
        "details": "Grants `role` to `account`. If `account` had not been already granted `role`, emits a {RoleGranted} event. Requirements: - the caller must have ``role``'s admin role."
      },
      "hasRole(bytes32,address)": {
        "details": "Returns `true` if `account` has been granted `role`."
      },
      "owner()": {
        "details": "Returns the address of the current owner."
      },
      "renounceOwnership()": {
        "details": "Leaves the contract without owner. It will not be possible to call `onlyOwner` functions anymore. Can only be called by the current owner. NOTE: Renouncing ownership will leave the contract without an owner, thereby removing any functionality that is only available to the owner."
      },
      "renounceRole(bytes32,address)": {
        "details": "Revokes `role` from the calling account. Roles are often managed via {grantRole} and {revokeRole}: this function's purpose is to provide a mechanism for accounts to lose their privileges if they are compromised (such as when a trusted device is misplaced). If the calling account had been revoked `role`, emits a {RoleRevoked} event. Requirements: - the caller must be `account`."
      },
      "revokeRole(bytes32,address)": {
        "details": "Revokes `role` from `account`. If `account` had been granted `role`, emits a {RoleRevoked} event. Requirements: - the caller must have ``role``'s admin role."
      },
      "supportsInterface(bytes4)": {
        "details": "See {IERC165-supportsInterface}."
      },
      "transferOwnership(address)": {
        "details": "Transfers ownership of the contract to a new account (`newOwner`). Can only be called by the current owner."
      }
    },
    "version": 1
  },
  "userdoc": {
    "kind": "user",
    "methods": {},
    "version": 1
  }
}